:020000040800F2
:1000000030040020450100082D0700087B0400088B
:1000100029070008B9010008810B00080000000052
:10002000000000000000000000000000450800087B
:10003000BD010008000000002F070008310900087A
:100040005F0100085F0100085F0100085F01000810
:100050005F0100085F0100085F0100085F01000800
:100060005F0100085F0100085F0100085F010008F0
:100070005F0100085F0100085F0100085F010008E0
:100080005F0100085F0100085F0100085F010008D0
:100090005F0100085F0100085F0100085F010008C0
:1000A0005F0100085F0100085F0100085F010008B0
:1000B0005F0100085F0100085F0100085F010008A0
:1000C0005F0100085F0100085F0100085F01000890
:1000D0005F0100085F0100085F0100085F01000880
:1000E0005F0100085F0100085F0100085F01000870
:1000F0005F0100085F0100085F0100085F01000860
:100100005F0100085F0100085F0100085F0100084F
:100110005F0100085F0100085F0100085F0100083F
:100120005F0100085F0100085F0100085F0100082F
:10013000DFF80CD000F02EF8004800473D0D000815
:10014000300400200648804706480047FEE7FEE7E7
:10015000FEE7FEE7FEE7FEE7FEE7FEE7FEE7FEE777
:10016000350900083101000830B50B460146002072
:100170002022012409E021FA02F59D4205D303FA69
:1001800002F5491B04FA02F52844151EA2F10102EA
:10019000F1DC30BD064C074D06E0E06840F001039D
:1001A00094E8070098471034AC42F6D3FFF7C4FF39
:1001B000D80D0008F80D000800BFFEE770470000EA
:1001C00070B505460C46164601211F4800F0CCF9D3
:1001D00000BF1E491C4800F05EF90128F9D1002239
:1001E000A021194800F070FA00BF1949164800F024
:1001F00052F90128F9D12946134800F06EFA00BFE0
:100200001349891E104800F046F90128F8D10CE086
:1002100021780D4800F061FA00BF0D49891C0A4899
:1002200000F039F90128F8D1641C3000A6F1010171
:10023000CEB2EDD10121044800F0A2F9012102481B
:1002400000F01DF970BD00000054004001000300E3
:100250008200070070B505460C46164601212B4862
:1002600000F082F900BF2A49284800F014F901285B
:10027000F9D10022A021254800F026FA00BF254927
:10028000224800F008F90128F9D129461F4800F05A
:1002900024FA00BF1F49891E1C4800F0FCF8012801
:1002A000F8D10121194800F05FF900BF184917483B
:1002B00000F0F1F80128F9D10122A021134800F043
:1002C00003FA00BF1249491C104800F0E4F8012865
:1002D000F8D10CE000BF0E493F310C4800F0DBF8CC
:1002E0000128F8D1094800F0EBF92070641C3000B7
:1002F000A6F10101CEB2EDD10121044800F040F990
:100300000121024800F0BBF870BD0000005400401D
:10031000010003008200070010B500BF01210D4855
:1003200000F022F900BF0C490A4800F035F9002816
:10033000F9D00022A021074800F0C6F90649491C5F
:10034000044800F029F90028E8D00121014800F014
:1003500017F910BD00540040010000102DE9F041D4
:10036000024600250026002000230024002791F8E3
:1003700003C00CF00F0591F803C00CF0100CBCF199
:10038000000F03D091F802C04CEA050591F800C0B7
:10039000BCF1000F31D0146800202BE04FF0010CAD
:1003A0000CFA00F3B1F800C00CEA03069E4220D11B
:1003B00083004FF00F0C0CFA03F7BC4305FA03FC63
:1003C0004CEA040491F803C0BCF1280F06D14FF0A9
:1003D000010C0CFA00FCC2F814C00AE091F803C04A
:1003E000BCF1480F05D14FF0010C0CFA00FCC2F82B
:1003F00010C0401C0828D1D31460B1F800C0BCF173
:10040000FF0F34DD546800202EE000F1080C4FF09F
:10041000010808FA0CF3B1F800C00CEA03069E428A
:1004200021D183004FF00F0C0CFA03F7BC4305FAFF
:1004300003FC4CEA040491F803C0BCF1280F05D179
:1004400000F1080C08FA0CF8C2F8148091F803C007
:10045000BCF1480F07D100F1080C4FF0010808FA71
:100460000CF8C2F81080401C0828CED35460BDE8B8
:10047000F081416170470161704700BFFEE721B123
:10048000028842F48062028004E002884FF6FF3363
:100490001A400280704770B50246002400250023F0
:1004A0000020958A138B1B0445EA030626F07F443F
:1004B00004EA01068E4201D1012000E0002070BD57
:1004C00021B1028842F00102028004E002884FF666
:1004D000FE731A400280704700B585B001210820E4
:1004E00000F026F90121480500F022F94020ADF87E
:1004F00010001C208DF8130003208DF8120004A9B1
:100500001648FFF72BFF8020ADF810001C208DF857
:10051000130003208DF8120004A91048FFF71EFFF6
:100520000F4800900020ADF804004BF6FF70ADF8C6
:1005300006005F20ADF808004FF48060ADF80A00B7
:100540000001ADF80C006946064800F043F80121AF
:100550000448FFF7B5FF05B000BD0000000C0140E6
:10056000801A06000054004021B1028842F48072D3
:10057000028004E002884FF6FF631A400280704751
:1005800021B1028842F40072028004E002884FF632
:10059000FF531A40028070470CB50246002000232A
:1005A0000193009300920B0F019321F07F41019B77
:1005B0001BB1009B1433009303E0090C009B18331C
:1005C0000093009B1B680B400BB1012000E0002052
:1005D0000CBD00002DE9F04385B004460D46002611
:1005E000B1460427DFF8CC80A6884FF6C0700640DD
:1005F000684600F0BDF8DDF808802F48B8FBF0F041
:100600001FFA80F946EA0906A68020884FF6FE7197
:100610000840208000262949286888420CD828688C
:100620004000B8FBF0F087B2042F00DA04273E4305
:1006300009F10100208427E0E8884BF6FF71884229
:1006400006D1286800EB4000B8FBF0F087B209E063
:10065000286800EBC00101EB0010B8FBF0F087B296
:1006600047F48047C7F30B0008B947F0010747F488
:10067000004006434FF4967009FB00F04FF47A7186
:1006800090FBF1F0401C2084A683208840F00100FC
:10069000208026884FF6F5300640A88869890843EF
:1006A00006432680A88929890843208105B0BDE832
:1006B000F083000000127A0040420F00A086010083
:1006C0000146088AC0B2704712B141F0010102E050
:1006D0004FF6FE7319400182704701827047000097
:1006E00008B50121482000F033F82020ADF80000C3
:1006F00003208DF8020010208DF803006946084899
:10070000FFF72CFE69460748FFF728FE2021044822
:10071000FFF7B1FE20210348FFF7ADFE08BD000042
:10072000000C01400018014000BFFEE77047704711
:1007300029B1064AD2690243044BDA6104E0034A54
:10074000D2698243014BDA61704700000010024019
:1007500029B1064A92690243044B9A6104E0034AB4
:1007600092698243014B9A61704700000010024079
:1007700030B500210022002400232D4D6D6805F0C6
:100780000C0121B1042905D0082923D105E0294D08
:10079000056022E0274D05601FE0254D6D6805F4DA
:1007A0007012234D6D6805F48034022505EB9242EA
:1007B0001CB9214D554305600BE01D4D6D6805F4D6
:1007C00000351DB11C4D5543056002E0194D5543E0
:1007D000056002E0174D056000BF00BF144D6D6855
:1007E00005F0F0010909154D6B5C0568DD404560B9
:1007F0000F4D6D6805F4E061090A104D6B5C4568AA
:10080000DD4085600A4D6D6805F46051C90A0B4DE5
:100810006B5C4568DD40C560054D6D6805F4404181
:10082000890B074D6B5CC568B5FBF3F5056130BD01
:100830000010024000127A0000093D001300002061
:1008400023000020704710B500F002F810BD000032
:100850000CB50020019000903348006840F48030CF
:100860003149086000BF3048006800F40030009053
:100870000198401C0190009818B90198B0F5A06F3C
:10088000F1D12948006800F4003010B10120009037
:1008900001E0002000900098012843D1234800681F
:1008A00040F01000214908600846006820F003006D
:1008B00008600846006840F0020008601A48406876
:1008C000194948600846406848600846406840F456
:1008D000806048600846406820F47C104860084604
:1008E000406840F4E81048600846006840F08070B6
:1008F000086000BF0C48006800F000700028F9D0C4
:100900000948406820F003000749486008464068ED
:1009100040F00200486000BF0348406800F00C004F
:100920000828F9D10CBD0000001002400020024050
:100930007047000010B51348006840F001001149ED
:10094000086008464068104908400E49486008465B
:1009500000680E4908400B4908600846006820F40A
:10096000802008600846406820F4FE0048604FF48C
:100970001F008860FFF767FF4FF0006004490860C0
:1009800010BD0000001002400000FFF8FFFFF6FE5F
:1009900008ED00E021B1828942F40052828104E036
:1009A00082894DF6FF731A408281704700B585B089
:1009B00001210420FFF7CCFE01218803FFF7C8FEC8
:1009C0004FF40070ADF8100018208DF813000320CC
:1009D0008DF8120004A91748FFF7C0FC4FF480609F
:1009E000ADF8100004208DF8130004A91148FFF79A
:1009F000B5FC4FF4E13000900020ADF80400ADF8F4
:100A00000600ADF808000C20ADF80A000020ADF893
:100A10000C006946084800F043F8012240F22551D5
:100A2000054800F018F801210348FFF7B3FF05B0AF
:100A300000BD0000000801400038014002460020CF
:100A4000B1F5007F00D100BF13880B400BB101202E
:100A500000E000207047F0B5034600240026002582
:100A6000002040F66A17B94200D100BF1846C1F312
:100A7000421401F01F06012707FA06F5012C01D1E7
:100A80000C3004E0022C01D1103000E014301AB117
:100A900007682F43076002E00768AF430760F0BDB7
:100AA0002DE9F04786B005460E460024A24600BF59
:100AB000A1460027B08900B100BF2F462C8A4CF612
:100AC000FF700440F08804432C82AC894EF6F3108A
:100AD0000440B08831890843718908430443AC81DC
:100AE000AC8A4FF6FF400440B0890443AC8201A8B1
:100AF000FFF73EFE1F48874202D1DDF810A001E05B
:100B0000DDF80CA0A88900F4004040B10AEBCA004F
:100B100000EB0A1031684900B0FBF1F807E00AEB7E
:100B2000CA0000EB0A1031688900B0FBF1F86420BC
:100B3000B8FBF0F004012009642101FB1089A889A9
:100B400000F4004040B1322000EBC900B0FBF1F0EE
:100B500000F00700044308E0322000EB0910642194
:100B6000B0FBF1F000F00F0004432C8106B0BDE8AB
:100B7000F087000000380140C1F30802828070470E
:100B800000BFFEE70FB4054B10B503A9044A029855
:100B900000F018F810BC5DF814FB0000190D0008F7
:100BA0002800002002E008C8121F08C1002AFAD15C
:100BB00070477047002001E001C1121F002AFBD1DD
:100BC000704700002DE9FF4F89B09B460446002581
:100BD00006E025280BD05A460B999047641C6D1CE3
:100BE00020780028F5D10DB02846BDE8F08F002709
:100BF000B8460122474900E0074314F8013F203B73
:100C000002FA03F00842F7D120782E2819D114F8FF
:100C1000010F47F004072A280ED06FF02F0220782A
:100C2000A0F1300109290CD808EB880102EB410141
:100C300000EB0108641CF2E70A98641C50F8048B6E
:100C40000A9020780028CED0642808D0692806D0E1
:100C500075281ED05A460B9990476D1C58E00A998A
:100C60004FF00A0901C90A91002802DA40422D21F9
:100C700002E0390504D52B218DF82010012103E075
:100C8000F90704D02021F7E78A4608AE0DE00021DD
:100C9000FAE70A994FF00A0901C90A91F7E74946AC
:100CA000FFF762FA303106F8011D0028F7D1ADEBED
:100CB000060000F12009780701D44FF00108C8456B
:100CC00002DDA8EB090000E000208046002706E0D6
:100CD00008A85A46C05D0B9990476D1C7F1C57456C
:100CE000F6DB04E030205A460B9990476D1CB8F1B2
:100CF0000001A8F10108F5DC05E016F8010B5A46E1
:100D00000B9990476D1CB9F10001A9F10109F4DCC0
:100D1000641C65E70928010070B504460D46E1B280
:100D20000548FFF729FF00BF80210348FFF786FE33
:100D30000028F9D0204670BD00380140FFF7D0FCF4
:100D4000FFF734FEFFF7C8FB20211648FFF791FBA1
:100D500020211548FFF78FFB14A0FFF713FF08228F
:100D6000184919480078FFF72BFAFFF7D5FA08223F
:100D7000164915480078FFF76DFA002406E013487D
:100D8000015D13A0FFF7FEFE601CC4B2082CF6DB69
:100D900020210448FFF76FFB20210348FFF769FB80
:100DA00000BFFEE7000C014000180140D5E2CAC7B1
:100DB000D2BBB8F6494943CDA8D1B6CAB5D1E90AE4
:100DC0000000000001000020120000200A000020A6
:100DD000256420200A000000F80D00080000002013
:100DE0002C000000A40B0008240E00082C0000209A
:100DF00004040000B40B00082D01020304050607DB
:100E000008000000000000000000080000000001D1
:100E1000020304010203040607080902040608008D
:040E200000000000CE
:0400000508000145A9
:00000001FF
