:020000040800F2
:1000000060060020B1010008DD040008D5040008E6
:10001000D9040008B5030008C1080008000000006A
:1000200000000000000000000000000001050008C2
:10003000B903000800000000DF04000841060008C2
:10004000CB010008CB010008CB010008CB01000860
:10005000CB010008CB010008CB010008CB01000850
:10006000CB010008CB010008CB010008CB01000840
:10007000CB010008CB010008CB010008CB01000830
:10008000CB010008CB010008CB010008CB01000820
:10009000CB010008CB010008CB010008CB01000810
:1000A000CB010008CB010008CB010008CB01000800
:1000B000CB010008CB010008CB010008CB010008F0
:1000C000CB010008CB010008CB010008CB010008E0
:1000D000CB010008CB010008CB010008CB010008D0
:1000E000CB010008CB010008CB010008CB010008C0
:1000F000CB010008CB010008CB010008CB010008B0
:10010000CB010008CB010008CB010008CB0100089F
:10011000CB010008CB010008CB010008CB0100088F
:10012000CB010008CB010008CB010008CB0100087F
:1001300000F002F800F02CF80AA090E8000C8244CD
:100140008344AAF10107DA4501D100F021F8AFF2AA
:10015000090EBAE80F0013F0010F18BFFB1A43F0A5
:1001600001031847B0070000C00700000023002467
:1001700000250026103A28BF78C1FBD8520728BFB7
:1001800030C148BF0B6070471FB51FBD10B510BD13
:1001900000F031F81146FFF7F7FF00F093FB00F095
:1001A0004FF803B4FFF7F2FF03BC00F053F8000070
:1001B0000948804709480047FEE7FEE7FEE7FEE7FB
:1001C000FEE7FEE7FEE7FEE7FEE7FEE70448054937
:1001D000054A064B7047000045060008310100083B
:1001E0006000002060060020600200206002002005
:1001F000704770477047754600F028F8AE46050016
:100200006946534620F00700854618B020B5FFF731
:10021000DDFFBDE820404FF000064FF000074FF033
:1002200000084FF0000B21F00701AC46ACE8C00914
:10023000ACE8C009ACE8C009ACE8C0098D4670471D
:100240000446AFF300802046FFF7ABFF004870473D
:100250000000002001491820ABBEFEE72600020086
:100260007047000008B50121042000F039F94FF46F
:100270008070ADF8000018208DF8030003208DF881
:1002800002006946164800F098F80121082000F0A5
:1002900027F94FF40050ADF8000018208DF8030046
:1002A00003208DF8020069460E4800F086F801210F
:1002B000082000F015F94FF48050ADF80000182028
:1002C0008DF8030003208DF802006946054800F010
:1002D00074F84FF48051034800F0FAF808BD0000AC
:1002E00000080140000C014010B5FFF7BBFF00F013
:1002F00001F810BD00B58BB00121C80200F0F0F884
:100300004720ADF820000020ADF8220040F2E73091
:10031000ADF824000020ADF826008DF8280008A9CB
:10032000234800F07BFA6020ADF810000120ADF802
:1003300012000420ADF814000520ADF816000020CE
:10034000ADF81800ADF81A004FF48070ADF81C003D
:100350000020ADF81E0004A9154800F007FA082196
:10036000134800F04FFA4FF40060ADF80000401061
:10037000ADF802008010ADF804000B20ADF80600C7
:100380004FF48050ADF808004000ADF80A0040007E
:10039000ADF80C006946064800F0BDF9012104489B
:1003A00000F0C9F90121024800F0D1F90BB000BDFD
:1003B000002C014000BFFEE770472DE9F0410246E6
:1003C00000250026002000230024002791F803C008
:1003D0000CF00F0591F803C00CF0100CBCF1000FED
:1003E00003D091F802C04CEA050591F800C0BCF1B9
:1003F000000F31D0146800202BE04FF0010C0CFAF4
:1004000000F3B1F800C00CEA03069E4220D183003D
:100410004FF00F0C0CFA03F7BC4305FA03FC4CEA4F
:10042000040491F803C0BCF1280F06D14FF0010C71
:100430000CFA00FCC2F814C00AE091F803C0BCF149
:10044000480F05D14FF0010C0CFA00FCC2F810C0A7
:10045000401C0828D1D31460B1F800C0BCF1FF0FD4
:1004600034DD546800202EE000F1080C4FF0010844
:1004700008FA0CF3B1F800C00CEA03069E4221D141
:1004800083004FF00F0C0CFA03F7BC4305FA03FC92
:100490004CEA040491F803C0BCF1280F05D100F127
:1004A000080C08FA0CF8C2F8148091F803C0BCF1EB
:1004B000480F07D100F1080C4FF0010808FA0CF8BA
:1004C000C2F81080401C0828CED35460BDE8F081EB
:1004D0004161704700BFFEE700BFFEE7704770470D
:1004E00029B1064A92690243044B9A6104E0034A27
:1004F00092698243014B9A617047000000100240EC
:10050000704710B500F002F810BD00000CB50020D7
:10051000019000903348006840F480303149086011
:1005200000BF3048006800F4003000900198401C83
:100530000190009818B90198B0F5A06FF1D1294841
:10054000006800F4003010B10120009001E00020AC
:1005500000900098012843D12348006840F0100023
:10056000214908600846006820F00300086008463A
:10057000006840F0020008601A4840681949486065
:100580000846406848600846406840F4806048601B
:100590000846406820F47C1048600846406840F4F3
:1005A000E81048600846006840F08070086000BFAE
:1005B0000C48006800F000700028F9D00948406835
:1005C00020F00300074948600846406840F00200F8
:1005D000486000BF0348406800F00C000828F9D1CB
:1005E0000CBD0000001002400020024030B5014662
:1005F000B1F1807F01D3012030BD21F07F40401E4A
:100600004FF0E022506150170F22002807DA13073D
:100610001D0E094B00F00F04241F1D5503E01307A6
:100620001C0E064B1C5400BF00204FF0E0229061CE
:10063000072010610020DFE718ED00E000E400E093
:100640007047000010B51348006840F001001149E0
:10065000086008464068104908400E49486008464E
:1006600000680E4908400B4908600846006820F4FD
:10067000802008600846406820F4FE0048604FF47F
:100680001F008860FFF73DFF4FF0006004490860DD
:1006900010BD0000001002400000FFF8FFFFF6FE52
:1006A00008ED00E070B504460C48FFF79FFF0025F9
:1006B00008E000BF4FF0E020006900F4803000281F
:1006C000F8D06D1CA542F4D34FF0E020006920F073
:1006D00001004FF0E021086170BD000040190100E9
:1006E00070B504464820FFF781FF002508E000BFF1
:1006F0004FF0E020006900F480300028F8D06D1C35
:10070000A542F4D34FF0E020006920F001004FF043
:10071000E021086170BD0A884B881A438B881A4310
:10072000CB881A430B891A434B891A438B891A4386
:10073000A0F84420704721B1028842F001020280F3
:1007400004E002884FF6FE731A400280704731B110
:10075000B0F8442042F40042A0F8442005E0B0F88C
:100760004420C2F30E02A0F84420704770B5002464
:1007700000220023058C4FF6FE7635400584028C5E
:100780008388048B4FF68F752C40B51E2C400D8846
:100790002C43751E2A400D892A434D882A43144D47
:1007A000A8420BD0134DA84208D0134DA84205D043
:1007B000124DA84202D0124DA84213D14FF6F77540
:1007C0002A404D892A434FF6FB752A408D882A43DB
:1007D0004FF6FF652B404FF6FF552B408D892B437D
:1007E000CD892B4383800483CD888586028470BDA8
:1007F000002C014000340140004001400044014011
:10080000004801400A460021018B4FF6F77319405A
:1008100011430183704781867047000000220288DF
:100820001D4B98420ED01D4B98420BD0B0F1804F1B
:1008300008D01B4B984205D01A4B984202D01A4B55
:10084000984204D14FF68F731A404B881A43174BC6
:10085000984207D0164B984204D04FF6FF431A40F7
:10086000CB881A4302808B8883850B8803850A4BCB
:1008700098420BD0094B984208D00E4B984205D0B5
:100880000D4B984202D00D4B984201D10B7A038652
:100890000123838270470000002C01400034014096
:1008A0000004004000080040000C00400010004020
:1008B0000014004000400140004401400048014055
:1008C00000BFFEE7FFF710FD21E0002409E021460C
:1008D0000F48FFF7A0FF40F2DC50FFF701FF601C5C
:1008E00084B2B4F57A7FF2DB40F2E73409E02146C6
:1008F0000748FFF790FF40F2DC50FFF7F1FE601E63
:1009000084B2002CF3DC4FF4FA70FFF7CBFEDCE787
:10091000002C0140240900080000002060060000AF
:040920006C0100085E
:04000005080001B13D
:00000001FF
