:020000040800F2
:100000002004002045010008470C00083F0C0008B0
:10001000430C0008BD0A0008B510000800000000ED
:10002000000000000000000000000000790D000842
:10003000150B000800000000490C0008650E0008C0
:100040005F0100085F0100085F0100085F01000810
:100050005F0100085F0100085F0100085F01000800
:100060005F0100085F0100085F0100085F010008F0
:100070005F0100085F0100085F0100085F010008E0
:100080005F0100085F0100085F0100085F010008D0
:100090005F0100085F0100085F0100085F010008C0
:1000A0005F0100085F0100085F0100085F010008B0
:1000B0005F0100085F0100085F0100085F010008A0
:1000C0005F0100085F0100085F0100085F01000890
:1000D0005F0100085F0100085F0100085F01000880
:1000E0005F0100085F0100085F0100085F01000870
:1000F0005F0100085F0100085F0100085F01000860
:100100005F0100085F0100085F0100085F0100084F
:100110005F0100085F0100085F0100085F0100083F
:100120005F0100085F0100085F0100085F0100082F
:10013000DFF80CD000F01EFB00480047B1190008A2
:10014000200400200648804706480047FEE7FEE7F7
:10015000FEE7FEE7FEE7FEE7FEE7FEE7FEE7FEE777
:10016000690E00083101000830B480EA010202F093
:10017000004530F0004221F0004013D090B1C30D93
:10018000D40DC2F31601C0F31600E41A41F40001C5
:1001900040F400027D34914201D3641C00E0490028
:1001A000002C02DA30BC002070474FF4000000231E
:1001B000914201D3891A034340084FEA4101F7D124
:1001C00051B1914202D14FF0004105E002D24FF00F
:1001D000010101E06FF0010103EBC450284430BC81
:1001E00000F0EDB82DE9FE4F81EA030404F000446D
:1001F00021F0004100944FF0000B23F0004350EA3F
:1002000001045ED052EA03045BD0C3F30A54C1F385
:100210000A552C44A4F2F3340194A0FB0254C1F318
:10022000130141F48011C3F3130343F4801301FB62
:10023000024400FB034E840A970A44EA815447EAC9
:100240008357A4FB076802958D0A05FB07854FEAD3
:10025000932C04FB0C542705029D4FEA065847EAED
:100260001637B5EB08056EEB070C870E920E47EAC2
:10027000811742EA8312A7FB0201B6EB0B0164EB84
:1002800000042B0D43EA0C335E1844EB1C50DA4695
:100290005146E7FB0201C5F313044FEA0B3343EA6F
:1002A00014534FEA0432019C43EA0603A4F10C0400
:1002B0000294009CCDE900B400F0C7F803B0BDE89B
:1002C000F08F00200146F9E796230022114600F046
:1002D0007FB800F0004230F000400AD0C10D01F5B7
:1002E0006071C0F3160042EA0151C2084007114391
:1002F000704700200146704701F0004330B421F000
:10030000004150EA010206D00A0DA2F56072C1F365
:100310001301002A02DC30BC00207047440F44EA7D
:10032000C104C100E01830BC00EBC25000F047B877
:1003300030B50B46014600202022012409E021FAB5
:1003400002F59D4205D303FA02F5491B04FA02F5B2
:100350002844151EA2F10102F1DC30BD2DE9F05F49
:100360000546002092469B46884606468146402424
:100370001BE0284641464746224600F01CFA5346F9
:100380005A46C01A914110D311461846224600F031
:1003900003FA2D1A67EB01084F462246012000217F
:1003A00000F0FAF917EB00094E41201EA4F10104F8
:1003B000DFDC484631462A464346BDE8F09F002927
:1003C000A8BF7047401C490008BF20F001007047DB
:1003D00010B4B0FA80FC00FA0CF050EA010404BF3B
:1003E00010BC704749B1CCF1200421FA04F411FA91
:1003F0000CF118BF012121430843A3EB0C01CB1DD5
:100400004FEA00614FEA102042BF002010BC704745
:1004100000EBC35010440029A4BF10BC7047401C1F
:10042000490008BF20F0010010BC704710B5141E31
:1004300073F1000408DA401C41F1000192185B419D
:100440001A4301D120F0010010BD2DE9F04D924674
:100450009B4611B1B1FA81F202E0B0FA80F220328B
:10046000904600F099F904460F4640EA0A0041EA36
:100470000B0153465A46084313D0114653EA010074
:1004800019D0C8F14002504600F095F905460E46D5
:1004900050465946424600F07FF9084305D00120F6
:1004A00004E020463946BDE8F08D0020054346EAC9
:1004B000E0762C4337430A986305E40AA0EB080072
:1004C0000022FD0A44EA47540A3002D500200146C2
:1004D000E9E7010510196941DDE90845001969419D
:1004E000BDE8F04DA2E72DE9FE4F804681EA03000A
:1004F000C00F0C46009021F0004123F00045B8EBFE
:100500000200A94105D24046214690461C460B46B2
:10051000024623F00040104347D0270DC7F30A00DE
:10052000C3F30A510290401A019040286BDAC3F3DA
:10053000130040F4801B0098924620B10023D2EBB8
:10054000030A63EB0B0B01985946C0F14002504679
:1005500000F022F906460D4650465946019A00F031
:100560003AF910EB08006141002487EA115284EA4D
:10057000E7731A4340D0009A62B3019A012A4FEA06
:10058000075215DC001B61EB02014FF0004202EA4A
:100590000752CDE90042001C41F5801132462B463E
:1005A000FFF753FF03B0BDE8F08F40462146F9E75F
:1005B000001B61EB0201001C41F5801300185B4138
:1005C0002018A2F5001747EB030140EAD570B619D1
:1005D0006D4111E06D084FEA360645EAC0754FEAF5
:1005E0000752001B61EB0201001C41F58011490814
:1005F0004FEA30000019514132462B4603B0BDE8A6
:10060000F04FFFF713BF0098012240000023D0EB0A
:10061000020263EBE073009821464FEAE074B8EB06
:10062000000061EB0401E9E783F000435BE781F040
:10063000004158E72DE9F04D81EA030404F0004B36
:1006400021F0004514464FF0000A23F0004150EA23
:10065000050220D054EA01021DD0C5F30A57024614
:10066000C5F31303C1F31300C1F30A5640F4801518
:1006700043F48013A7EB0608101BD64608F2FD389A
:1006800073EB050002D308F1010801E092185B4109
:10069000B8F1000F03DA00200146BDE8F08D00201C
:1006A0004FF48011064684460EE0171B73EB0507D6
:1006B00005D3121B63EB050306434CEA010C490802
:1006C0004FEA300092185B4150EA0107EDD152EA3F
:1006D000030012D082EA040083EA0501084305D032
:1006E000101BAB4106D20122002306E000224FF08E
:1006F000004302E06FF0010253101AEB06004CEBCE
:10070000085110EB0A0041EB0B01BDE8F04DFFF77B
:100710008DBEC1F30A52C1F3130140F2FF3341F41D
:1007200080119A4202DA00200146704740F23343BA
:100730009A42A2F2334202DC524200F03CB800F08E
:100740002BB8000030B5041E71F1000404DB4FF03B
:100750000044404264EB0101141E73F1000405DB08
:100760001C464FF00043524263EB0403994208BF1A
:10077000904230BD064C074D06E0E06840F00103B2
:1007800094E8070098471034AC42F6D3FFF7D4FC46
:10079000781A0008981A0008202A04DB203A00FA88
:1007A00002F1002070479140C2F1200320FA03F3C8
:1007B000194390407047202A04DB203A21FA02F0C6
:1007C0000021704721FA02F3D040C2F1200291408B
:1007D000084319467047202A06DBCB17203A41FA16
:1007E00002F043EAE07306E041FA02F3D040C2F1BE
:1007F0002002914008431946704721B1826842F0B7
:100800000102826003E0826822F001028260704788
:1008100021B1826842F48072826003E0826822F42F
:10082000807282607047000000B58BB001210846DD
:1008300000F018FA0F4800900F4801900020029035
:100840000420039000200490802005904000069032
:1008500080000790202008900002099000200A9054
:100860006946064800F038F90121044800F028F9EB
:100870000BB000BD4C2401401400002008000240D1
:1008800008B50121102000F0FDF900208DF80300CB
:1008900003208DF802000220ADF8000069460C48E4
:1008A00000F042F90420ADF800006946084800F065
:1008B0003BF90820ADF800006946054800F034F91E
:1008C0001020ADF800006946014800F02DF908BD80
:1008D00000100140014600208A6802F004020AB1BB
:1008E000012000E00020704730B5024600200023C0
:1008F00050680F4C20400D790C6844EA05242043D1
:10090000506090680B4C2040D1E902542C434D7943
:1009100044EA450420439060D06A20F470000C7CC7
:10092000641EE4B2234340EA0350D06230BD0000AD
:10093000FFFEF0FFFDF7F1FF10B500F005F8FFF73F
:100940009FFFFFF771FF10BD00B585B00121480280
:1009500000F098F90020009001208DF804008DF837
:1009600005004FF4602002900020039004208DF8D1
:10097000100069461A48FFF7B7FF4FF4404000F0F7
:1009800065F9052301220B21154800F02BF80523FA
:1009900002220C21124800F025F8052303220D2124
:1009A0000F4800F01FF8052304220E210C4800F028
:1009B00019F801210A48FFF720FF01210848FFF735
:1009C00027FF074800F075F800BF0548FFF782FFD2
:1009D0000128FAD00121024800F060F805B000BDFE
:1009E00000240140F0B504460D4600200021092DE9
:1009F00011DDE068A5F10A0606EB4607072606FAB0
:100A000007F18843A5F10A0606EB460603FA06F14C
:100A10000843E0600CE0206905EB4507072606FA6D
:100A200007F1884305EB450603FA06F10843206108
:100A3000072A0FDA606B561E06EB86071F2606FA9A
:100A400007F18843561E06EB860605FA06F10843B1
:100A5000606322E00D2A0FDA206BD61F06EB8607B3
:100A60001F2606FA07F18843D61F06EB860605FA0D
:100A700006F10843206310E0E06AA2F10D0606EBE0
:100A800086071F2606FA07F18843A2F10D0606EB3A
:100A9000860605FA06F10843E062F0BD21B18268DE
:100AA00042F4A002826003E0826822F4A002826025
:100AB0007047816841F004018160704700BFFEE724
:100AC00021B1026842F00102026004E002684FF6C0
:100AD000FE731A400260704710B50022026847F6A4
:100AE000F0739A430C6A8B6823430C6923434C6967
:100AF00023438C692343CC6923434C6A23438C6A88
:100B000023431A430260CB6843600B6883604B68E1
:100B1000C36010BD704701B502E00098401E009010
:100B200000980028F9D108BD2DE9F04102460025C2
:100B30000026002000230024002791F803C00CF0B9
:100B40000F0591F803C00CF0100CBCF1000F03D09E
:100B500091F802C04CEA050591F800C0BCF1000F05
:100B600031D0146800202BE04FF0010C0CFA00F398
:100B7000B1F800C00CEA03069E4220D183004FF07A
:100B80000F0C0CFA03F7BC4305FA03FC4CEA04040F
:100B900091F803C0BCF1280F06D14FF0010C0CFAFC
:100BA00000FCC2F814C00AE091F803C0BCF1480F81
:100BB00005D14FF0010C0CFA00FCC2F810C0401C2B
:100BC0000828D1D31460B1F800C0BCF1FF0F34DDA8
:100BD000546800202EE000F1080C4FF0010808FADC
:100BE0000CF3B1F800C00CEA03069E4221D1830049
:100BF0004FF00F0C0CFA03F7BC4305FA03FC4CEA68
:100C0000040491F803C0BCF1280F05D100F1080CD1
:100C100008FA0CF8C2F8148091F803C0BCF1480F30
:100C200007D100F1080C4FF0010808FA0CF8C2F8DF
:100C30001080401C0828CED35460BDE8F08100BF6E
:100C4000FEE700BFFEE77047704700000146002046
:100C5000034A506820F44040084350607047000049
:100C60000010024029B1064A52690243044B5A61FE
:100C700004E0034A52698243014B5A617047000005
:100C80000010024029B1064A92690243044B9A615E
:100C900004E0034A92698243014B9A617047000065
:100CA0000010024030B500210022002400232D4D09
:100CB0006D6805F00C0121B1042905D0082923D164
:100CC00005E0294D056022E0274D05601FE0254D18
:100CD0006D6805F47012234D6D6805F480340225AB
:100CE00005EB92421CB9214D554305600BE01D4DAB
:100CF0006D6805F400351DB11C4D5543056002E0DB
:100D0000194D5543056002E0174D056000BF00BF57
:100D1000144D6D6805F0F0010909154D6B5C05680F
:100D2000DD4045600F4D6D6805F4E061090A104D26
:100D30006B5C4568DD4085600A4D6D6805F4605167
:100D4000C90A0B4D6B5C4568DD40C560054D6D689B
:100D500005F44041890B074D6B5CC568B5FBF3F5A5
:100D6000056130BD0010024000127A0000093D000C
:100D70000000002010000020704710B500F002F8BD
:100D800010BD00000CB500200190009033480068B1
:100D900040F480303149086000BF3048006800F4FA
:100DA000003000900198401C0190009818B90198FB
:100DB000B0F5A06FF1D12948006800F4003010B1FF
:100DC0000120009001E0002000900098012843D10C
:100DD0002348006840F01000214908600846006878
:100DE00020F0030008600846006840F00200086038
:100DF0001A484068194948600846406848600846F3
:100E0000406840F4806048600846406820F47C10E8
:100E100048600846406840F4E810486008460068AA
:100E200040F08070086000BF0C48006800F000705F
:100E30000028F9D00948406820F0030007494860BD
:100E40000846406840F00200486000BF0348406820
:100E500000F00C000828F9D10CBD00000010024081
:100E6000002002407047000010B51348006840F0B1
:100E700001001149086008464068104908400E49C1
:100E80004860084600680E4908400B49086008465B
:100E9000006820F4802008600846406820F4FE00C6
:100EA00048604FF41F008860FFF767FF4FF0006055
:100EB0000449086010BD0000001002400000FFF867
:100EC000FFFFF6FE08ED00E021B1828942F40052F6
:100ED000828104E082894DF6FF731A408281704757
:100EE00000B585B001210420FFF7CCFE0121880365
:100EF000FFF7C8FE4FF40070ADF8100018208DF811
:100F0000130003208DF8120004A91748FFF70CFE08
:100F10004FF48060ADF8100004208DF8130004A990
:100F20001148FFF701FE4FF4E13000900020ADF8CA
:100F30000400ADF80600ADF808000C20ADF80A007A
:100F40000020ADF80C006946084800F043F8012283
:100F500040F22551054800F018F801210348FFF739
:100F6000B3FF05B000BD000000080140003801409B
:100F700002460020B1F5007F00D100BF13880B406E
:100F80000BB1012000E000207047F0B503460024BB
:100F900000260025002040F66A17B94200D100BFA4
:100FA0001846C1F3421401F01F06012707FA06F59F
:100FB000012C01D10C3004E0022C01D1103000E0F2
:100FC00014301AB107682F43076002E00768AF4387
:100FD0000760F0BD2DE9F04786B005460E460024B7
:100FE000A24600BFA1460027B08900B100BF2F462E
:100FF0002C8A4CF6FF700440F08804432C82AC89A4
:101000004EF6F3100440B0883189084371890843D3
:101010000443AC81AC8A4FF6FF400440B0890443DE
:10102000AC8201A8FFF73EFE1F48874202D1DDF8DF
:1010300010A001E0DDF80CA0A88900F4004040B148
:101040000AEBCA0000EB0A1031684900B0FBF1F866
:1010500007E00AEBCA0000EB0A1031688900B0FB18
:10106000F1F86420B8FBF0F004012009642101FBD1
:101070001089A88900F4004040B1322000EBC9007B
:10108000B0FBF1F000F00700044308E0322000EB71
:1010900009106421B0FBF1F000F00F0004432C8133
:1010A00006B0BDE8F087000000380140C1F3080237
:1010B0008280704700BFFEE70FB4054B10B503A94F
:1010C000044A029800F0CAF810BC5DF814FB000056
:1010D0008D1900081C00002002E008C8121F08C17A
:1010E000002AFAD170477047002001E001C1121FA9
:1010F000002AFBD1704700002DE9FF5FDDE90220E7
:10110000010DDDF838B0024318D044F61050A1F2BA
:10111000FF3141430D140F98012820D0A5EB0B009F
:10112000401C5FEA000A4FF00004474EDFF81C91B4
:10113000A046504616D5CAF1000728E00F980124B2
:1011400043A2012808D0002100980F9BC0E900218C
:10115000C0E90243BDE8FF9F6FEA0B01F4E7CBF162
:101160000000DEE7074612E0F80707D022463346C4
:1011700040464946FFF736F88046894622463346C0
:1011800010461946FFF72EF804460E467F10002F32
:10119000EAD1DDE90201BAF1000F42464B4602DA1C
:1011A000FFF720F801E0FFF745FA04460E4600225B
:1011B000284BFFF7C7FA03D84FF0FF30014607E08E
:1011C0000022254B20463146FFF78DF9FFF7A1FAA3
:1011D000102409E0002C0ADB0A220023FFF7BEF8E6
:1011E000019B30321A55641E50EA0102F2D1641C90
:1011F000019AC4F1110314440F9A012A03D0012269
:1012000008430DD10AE0084304D000204FF0110B31
:101210000F9080E7A3EB0B056D1E0DE05B4504DD31
:101220004FF0000205F1010504E003DA4FF000027F
:10123000A5F10105002AECD000980F99C0E9023110
:10124000C0E9004586E70000000024400000F03FB0
:10125000300000000000F0430000E03F2DE9FF4FA8
:1012600095B09B468946064600250FE2252877D192
:1012700000242746F84A0121059400E0044316F8AB
:10128000013F203B01FA03F01042F7D130782A28C1
:1012900011D06FF02F033078A0F13002092A16D850
:1012A000059A44F0020402EB820203EB420210446E
:1012B000761C0590EFE759F8042B0592002A03DA13
:1012C000504244F40054059044F00204761C3078F7
:1012D0002E2816D116F8010F44F004042A280DD048
:1012E0006FF02F023078A0F13003092B09D807EBFB
:1012F000870302EB4303C718761CF3E759F8047B16
:10130000761C30786C280FD006DC4C2817D0682863
:101310000DD06A2814D104E0742810D07A280FD197
:101320000DE044F400140AE044F4801401E044F4B5
:1013300040147278824202D104F58014761C761C27
:10134000307866280BD013DC582877D009DC0028C9
:1013500075D04528F6D04628F4D047281AD19DE10B
:1013600018E0632835D0642879D0652812D195E13A
:10137000702873D008DC6728F1D069286FD06E28F8
:101380000DD06F2806D1B5E073282CD0752875D004
:10139000782874D05A46179990476D1C75E1C4F3AC
:1013A0000250022809D003280DD0D9F800100428D3
:1013B0000DD00D6009F1040967E1D9F80010EA17B2
:1013C000C1E90052F6E7D9F800100D80F2E70D7080
:1013D000F0E719F8041B8DF8001000208DF80100CB
:1013E000EA46012003E059F804AB4FF0FF306107F3
:1013F0004FF0000102D40DE008F101018846B94226
:101400000FDA8045F8DB1AF808100029F4D108E05B
:1014100008F1010188468142FADB1AF80810002918
:10142000F6D105985B46A0EB080721463846179A87
:1014300000F094FA284400EB080507E04DE029E1AC
:101440000DE01AF8010B5A4617999047B8F10108B8
:10145000F7D25B4621463846179A13E142E00A224A
:101460000092C4F302524FF0000A022A08D059F841
:1014700004CB032A4FEAEC710AD00DE029E02AE000
:1014800009F1070121F00702F2E802C1914609E0E3
:101490000FFA8CFC4FEAEC71042A03D14FFA8CFC52
:1014A0004FEAEC71002907DA0A460021DCF1000C52
:1014B00061EB02012D2202E0220504D52B228DF8DA
:1014C0000420012203E0E20701D02022F7E7904642
:1014D00059E00A2102E010220DE010214FF0000A2D
:1014E00000910BE010224FF0000A44F0040408279A
:1014F000009203E008224FF0000A0092C4F3025267
:10150000022A05D059F804CB0021032A08D009E0AB
:1015100009F1070121F00702F2E802C1914605E056
:101520001FFA8CFC042A01D10CF0FF0C4FF00008CC
:10153000220728D5702806D0009B83F0100353EAB9
:101540000A0305D00EE040228DF80420012208E0B5
:101550005CEA010206D030228DF804208DF80500E7
:1015600002229046009B83F0080353EA0A030AD143
:101570005CEA010201D1620705D530228DF8042012
:101580004FF001087F1E582804D034A003900EA805
:1015900002900DE036A0F9E753466046009AFEF748
:1015A000DDFE84460398825C0298401E0290027021
:1015B0005CEA0100F0D1029806A9081A00F1200A9D
:1015C000600702D524F4803400E00127574502DD8E
:1015D000A7EB0A0000E0002000EB0A01009005984C
:1015E0004144401A0590E00306D45B462146179A11
:1015F000059800F0B3F90544002706E001A85A4613
:10160000C05D179990476D1C7F1C4745F6DBE003D2
:101610000CD55B462146179A059800F09FF90544C2
:1016200004E030205A46179990476D1C0099481ED7
:1016300000900029F5DC08E0029802995A460078EB
:10164000491C0291179990476D1CBAF10001AAF14B
:10165000010AF1DC65E10000092801003031323374
:1016600034353637383961626364656600000000DE
:1016700030313233343536373839414243444546C8
:101680000000000000F058F90544761C307800286E
:101690007FF4ECAD19B02846BDE8F08F620700D4A6
:1016A000062709F1070222F0070CFCE80223E146B5
:1016B00003F000485FEA080C02D00FF2702C0DE036
:1016C0005FEA045C02D50FF2682C07E05FEAC47C95
:1016D00002D00FF2602C01E0AFF2700C4FF0FF3837
:1016E00023F00043CDF850C065280CD006DC452817
:1016F00009D046281DD047283DD13DE0662818D0A6
:1017000067287ED138E00021112F01DB112000E095
:10171000781CCDE9000106A90EA8FFF7EDFCDDE974
:101720000F010E9A03910021009207F1010A049122
:101730004DE04FF000400097CDE9011006A90EA83A
:10174000FFF7DAFCDDE90F0203920E9B11990022EC
:10175000DDF80CA00093049211B9791C00EB010A8A
:10176000B7EB0A0004D4C0F1FF3007F1010A04907E
:10177000AAEB0700019044E0012F00DA01270021C5
:10178000112F01DD112000E03846CDE9000106A946
:101790000EA8FFF7B1FCDDE90F010E9A03910021BD
:1017A00004910092BA4621070CD40399514500DAFE
:1017B0008A46BAF1010F05DD009AAAF10101515CD8
:1017C000302908D0B84202DA10F1040F06DA0121FC
:1017D000CDE9011015E0AAF10101E9E7002805DCD7
:1017E000049901440491AAEB000102E0411C514517
:1017F00000DD8A460499401A401C01904FF00040D9
:101800000290200704D40198504501DBCDF80480F4
:1018100000208DF84F0002980DF14F07B0F1004FF6
:1018200025D02B200E9002984FF0020800280CDAE9
:10183000404202902D200E9007E00A210298FEF708
:1018400077FD3031029007F8011DB8F10001A8F1D1
:101850000108F2DC02980028EFD1791E0E9808707A
:10186000307800F0200040F0450007F8020D12A883
:10187000C01B00F107081498007800B1012000EBAC
:101880000A01019801EBE07105984144401A401E9D
:101890000590E00306D45B462146179A059800F0B0
:1018A0005DF805441498007818B15A461799904786
:1018B0006D1CE00324D55B462146179A059800F07D
:1018C0004DF805441CE00498002807DBDDE903011E
:1018D000884203DD0098405C179901E01799302099
:1018E0005A469047049805F10105401C0490019860
:1018F000401E019004D12E205A46179990476D1C26
:10190000BAF10001AAF1010ADDDC05E017F8010BCC
:101910005A46179990476D1CB8F10001A8F10108CB
:10192000F4DC5B462146179A0598ABE62D000000D3
:101930002B000000200000002DE9F04104460025A6
:101940001E461746880404D405E039462020B047D7
:101950006D1C641EF9D52846BDE8F0812DE9F041E3
:10196000044600251E469046C80301D5302700E0F6
:101970002027880404D505E041463846B0476D1C51
:10198000641EF9D52846BDE8F081000070B5044614
:101990000D46E1B20548FFF789FB00BF80210348EF
:1019A000FFF7E6FA0028F9D0204670BD0038014064
:1019B00008B50024A146FEF7BFFFFFF791FA1BA070
:1019C000FFF77AFB30E0002426E01F4931F81400CD
:1019D000FEF77AFC83464FF08B41FEF7C5FB82464B
:1019E000FEF777FC07464FF06632184BFEF7FAFB1E
:1019F0000546FEF781FC81464846FEF76AFC05462F
:101A0000114830F814002A460B46611C009010A0C3
:101A1000FFF752FB601CC4B2042CD6DB1448FFF75E
:101A20007AF814A0FFF748FBCDE700000D0A414407
:101A3000435F444D41BFAACABCB2E2CAD4A3A1A32A
:101A4000A1A3A10D0A0000001400002066660A4050
:101A50000D0AB2E2CAD4BDE1B9FB2564A3BA25667A
:101A600020562028307825303458290D0A000000EF
:101A7000EEFFFF000D0A0000981A00080000002089
:101A800020000000D8100008B81A0008200000202C
:101A900000040000E8100008000000000102030438
:101AA00001020304060708090204060800000000FA
:081AB00000000000000000002E
:0400000508000145A9
:00000001FF
