:020000040800F2
:1000000048070020CD010008DD040008E3030008D4
:10001000D9040008AD0200085F07000800000000D6
:1000200000000000000000000000000001050008C2
:10003000B102000800000000DF04000815060008F7
:10004000E7010008E7010008E7010008E7010008F0
:10005000E7010008E7010008E7010008E7010008E0
:10006000E7010008E7010008E7010008E7010008D0
:10007000E7010008E7010008E7010008E7010008C0
:10008000E7010008E7010008E7010008E7010008B0
:10009000E7010008E7010008E7010008E7010008A0
:1000A000E7010008E7010008E7010008E701000890
:1000B000E7010008E7010008E7010008E701000880
:1000C000E7010008E7010008E7010008E701000870
:1000D000E701000879060008E7010008E7010008C9
:1000E000E7010008E7010008E7010008E701000850
:1000F000E7010008E7010008E7010008E701000840
:10010000E7010008E7010008E7010008E70100082F
:10011000E7010008E7010008E7010008E70100081F
:10012000E7010008E7010008E7010008E70100080F
:1001300000F002F800F03AF80AA090E8000C8244BF
:100140008344AAF10107DA4501D100F02FF8AFF29C
:10015000090EBAE80F0013F0010F18BFFB1A43F0A5
:10016000010318472407000044070000103A24BF89
:1001700078C878C1FAD8520724BF30C830C144BF0C
:1001800004680C607047000000230024002500264E
:10019000103A28BF78C1FBD8520728BF30C148BFEA
:1001A0000B6070471FB51FBD10B510BD00F033F8D0
:1001B0001146FFF7F7FF00F01FFB00F051F803B402
:1001C000FFF7F2FF03BC00F0CCFA000009488047BB
:1001D00009480047FEE7FEE7FEE7FEE7FEE7FEE729
:1001E000FEE7FEE7FEE7FEE704480549054A064B41
:1001F000704700001906000831010008480100207E
:10020000480700204803002048030020704770473B
:10021000704770477047754600F028F8AE460500F5
:100220006946534620F00700854618B020B5FFF711
:10023000DBFFBDE820404FF000064FF000074FF015
:1002400000084FF0000B21F00701AC46ACE8C009F4
:10025000ACE8C009ACE8C009ACE8C0098D467047FD
:100260000446AFF300802046FFF7A9FF004870471F
:10027000E800002008B50121082000F031F94FF412
:100280008070ADF8000003208DF8020010208DF87A
:1002900003006946044800F00CF84FF480710248EE
:1002A00000F09BF808BD0000000C014000BFFEE715
:1002B00070472DE9F041024600250026002000236A
:1002C0000024002791F803C00CF00F0591F803C03B
:1002D0000CF0100CBCF1000F03D091F802C04CEAF6
:1002E000050591F800C0BCF1000F31D01468002062
:1002F0002BE04FF0010C0CFA00F3B1F800C00CEA4F
:1003000003069E4220D183004FF00F0C0CFA03F736
:10031000BC4305FA03FC4CEA040491F803C0BCF1A9
:10032000280F06D14FF0010C0CFA00FCC2F814C0E3
:100330000AE091F803C0BCF1480F05D14FF0010C61
:100340000CFA00FCC2F810C0401C0828D1D314607D
:10035000B1F800C0BCF1FF0F34DD546800202EE07E
:1003600000F1080C4FF0010808FA0CF3B1F800C0D6
:100370000CEA03069E4221D183004FF00F0C0CFAC9
:1003800003F7BC4305FA03FC4CEA040491F803C0EC
:10039000BCF1280F05D100F1080C08FA0CF8C2F8DE
:1003A000148091F803C0BCF1480F07D100F1080C8C
:1003B0004FF0010808FA0CF8C2F81080401C082819
:1003C000CED35460BDE8F0810246002093680B4014
:1003D0000BB1012000E000207047416170470161CE
:1003E000704700BFFEE7000008B50121442000F07F
:1003F00077F81820ADF8000003208DF8020048209F
:100400008DF8030069460848FFF753FF0120ADF857
:10041000000003208DF8020028208DF803006946B3
:100420000248FFF746FF08BD0018014000080140E0
:1004300010B510211448FFF7C7FF50B1082112482A
:10044000FFF7C2FF28B101211048FFF7BDFF0128C7
:1004500018D10A2000F0AAF910210B48FFF7B4FFC9
:1004600008B9012010BD08210748FFF7ADFF08B902
:100470000220F7E701210548FFF7A6FF012801D177
:100480000320EFE70020EDE70018014000080140DD
:1004900008B50121482000F023F82020ADF8000025
:1004A00003208DF8020010208DF8030069460848EB
:1004B000FFF7FFFE69460748FFF7FBFE20210448CF
:1004C000FFF78DFF20210348FFF789FF08BD0000DB
:1004D000000C01400018014000BFFEE77047704764
:1004E00029B1064A92690243044B9A6104E0034A27
:1004F00092698243014B9A617047000000100240EC
:10050000704710B500F002F810BD00000CB50020D7
:10051000019000903348006840F480303149086011
:1005200000BF3048006800F4003000900198401C83
:100530000190009818B90198B0F5A06FF1D1294841
:10054000006800F4003010B10120009001E00020AC
:1005500000900098012843D12348006840F0100023
:10056000214908600846006820F00300086008463A
:10057000006840F0020008601A4840681949486065
:100580000846406848600846406840F4806048601B
:100590000846406820F47C1048600846406840F4F3
:1005A000E81048600846006840F08070086000BFAE
:1005B0000C48006800F000700028F9D00948406835
:1005C00020F00300074948600846406840F00200F8
:1005D000486000BF0348406800F00C000828F9D1CB
:1005E0000CBD00000010024000200240042808D189
:1005F0004FF0E021096941F004014FF0E022116160
:1006000007E04FF0E021096921F004014FF0E022FA
:10061000116170477047000010B51348006840F042
:1006200001001149086008464068104908400E4919
:100630004860084600680E4908400B4908600846B3
:10064000006820F4802008600846406820F4FE001E
:1006500048604FF41F008860FFF753FF4FF00060C1
:100660000449086010BD0000001002400000FFF8BF
:10067000FFFFF6FE08ED00E010B540F225511D48E1
:1006800000F03EF810B31B4800F064F8C4B21A48FA
:10069000008800F40040C8B91748008800F4804082
:1006A00060B10A2C03D000201349088020E01248D2
:1006B000008840F400401049088019E00D2C06D154
:1006C0000D48008840F480400B49088010E00A483B
:1006D0000088C0F30D0009490C5407480088401CED
:1006E0000549088008460088C72801DD00200880E9
:1006F00010BD0000003801401C0000202000002038
:1007000070B50246002400230025002040F66A163A
:10071000B14200D100BFC1F3421501F01F03012611
:1007200006FA03F3012D02D19689334006E0022D2B
:1007300002D1168A334001E0968A33400C1201261A
:1007400006FA04F41688344013B10CB1012000E01D
:10075000002070BD01468888C0F30800704700BFC4
:10076000FEE700BF7047000010B56FF00400FFF710
:100770003DFF0A4800680A49B0FBF1F009490870DA
:100780000846007800EB4001C1EBC0104FF6FF7146
:1007900001EAC0000449088010BD000000000020EC
:1007A00000127A0014000020160000200146114AB1
:1007B00012884A434FF0E0235A6100229A611A4698
:1007C000126942F001021A6100BF4FF0E022106985
:1007D00000F001021AB100F48032002AF5D04FF087
:1007E000E022126922F001024FF0E0231A61002298
:1007F0009A617047160000200024FFF7B5FFFFF74D
:10080000F3FDFFF745FEFFF735FD37E0FFF710FE7C
:100810000446012C04D0022C0CD0032C1FD113E071
:1008200020211748FFF7D9FD00BFFFF701FE002880
:10083000FBD122E020211348FFF7CFFD00BFFFF7D7
:10084000F7FD0028FBD118E04FF480710C48FFF74A
:10085000C6FD00BFFFF7ECFD0028FBD10DE0202115
:100860000748FFF7BCFD20210648FFF7B8FD4FF40D
:1008700080710348FFF7B1FD00BF00BFC6E700006D
:10088000000C014000180140A808000800000020EA
:10089000200000006C010008C808000820000020AB
:1008A000280700008801000800A24A040000000098
:1008B0000000000001020304060708090000000010
:0808C000000000000000000030
:04000005080001CD21
:00000001FF
