:020000040800F2
:1000000078070020CD010008F3030008EB03000887
:10001000EF030008750200087706000800000000E2
:1000200000000000000000000000000019040008AB
:100030007902000800000000F50300082D05000803
:10004000E7010008E7010008E7010008E7010008F0
:10005000E7010008E7010008E7010008E7010008E0
:10006000E7010008E7010008E7010008E7010008D0
:10007000E7010008E7010008E7010008E7010008C0
:10008000E7010008E7010008E7010008E7010008B0
:10009000E7010008E7010008E7010008E7010008A0
:1000A000E7010008E7010008E7010008E701000890
:1000B000E7010008E7010008E7010008E701000880
:1000C000E7010008E7010008E7010008E701000870
:1000D000E701000891050008E7010008E7010008B2
:1000E000E7010008E7010008E7010008E701000850
:1000F000E7010008E7010008E7010008E701000840
:10010000E7010008E7010008E7010008E70100082F
:10011000E7010008E7010008E7010008E70100081F
:10012000E7010008E7010008E7010008E70100080F
:1001300000F002F800F03AF80AA090E8000C8244BF
:100140008344AAF10107DA4501D100F02FF8AFF29C
:10015000090EBAE80F0013F0010F18BFFB1A43F0A5
:1001600001031847F406000014070000103A24BFEA
:1001700078C878C1FAD8520724BF30C830C144BF0C
:1001800004680C607047000000230024002500264E
:10019000103A28BF78C1FBD8520728BF30C148BFEA
:1001A0000B6070471FB51FBD10B510BD00F033F8D0
:1001B0001146FFF7F7FF00F013FB00F051F803B40E
:1001C000FFF7F2FF03BC00F058FA0000094880472F
:1001D00009480047FEE7FEE7FEE7FEE7FEE7FEE729
:1001E000FEE7FEE7FEE7FEE704480549054A064B41
:1001F0007047000031050008310100087801002037
:1002000078070020780300207803002070477047AB
:10021000704770477047754600F028F8AE460500F5
:100220006946534620F00700854618B020B5FFF711
:10023000DBFFBDE820404FF000064FF000074FF015
:1002400000084FF0000B21F00701AC46ACE8C009F4
:10025000ACE8C009ACE8C009ACE8C0098D467047FD
:100260000446AFF300802046FFF7A9FF004870471F
:100270001401002000BFFEE770472DE9F04102465F
:1002800000250026002000230024002791F803C049
:100290000CF00F0591F803C00CF0100CBCF1000F2E
:1002A00003D091F802C04CEA050591F800C0BCF1FA
:1002B000000F31D0146800202BE04FF0010C0CFA35
:1002C00000F3B1F800C00CEA03069E4220D183007F
:1002D0004FF00F0C0CFA03F7BC4305FA03FC4CEA91
:1002E000040491F803C0BCF1280F06D14FF0010CB3
:1002F0000CFA00FCC2F814C00AE091F803C0BCF18B
:10030000480F05D14FF0010C0CFA00FCC2F810C0E8
:10031000401C0828D1D31460B1F800C0BCF1FF0F15
:1003200034DD546800202EE000F1080C4FF0010885
:1003300008FA0CF3B1F800C00CEA03069E4221D182
:1003400083004FF00F0C0CFA03F7BC4305FA03FCD3
:100350004CEA040491F803C0BCF1280F05D100F168
:10036000080C08FA0CF8C2F8148091F803C0BCF12C
:10037000480F07D100F1080C4FF0010808FA0CF8FB
:10038000C2F81080401C0828CED35460BDE8F0812C
:1003900008B50121302000F02FF8FF20ADF8000053
:1003A00010208DF8030003208DF8020069460848EC
:1003B000FFF763FF0720ADF8000010208DF8030061
:1003C00003208DF8020069460248FFF756FF08BD7A
:1003D00000140140001001400246002093680B40C9
:1003E0000BB1012000E00020704700BFFEE700BF16
:1003F000FEE770477047000029B1064A9269024340
:10040000044B9A6104E0034A92698243014B9A616A
:100410007047000000100240704710B500F002F86D
:1004200010BD00000CB5002001900090334800681A
:1004300040F480303149086000BF3048006800F463
:10044000003000900198401C0190009818B9019864
:10045000B0F5A06FF1D12948006800F4003010B168
:100460000120009001E0002000900098012843D175
:100470002348006840F010002149086008460068E1
:1004800020F0030008600846006840F002000860A1
:100490001A4840681949486008464068486008465C
:1004A000406840F4806048600846406820F47C1052
:1004B00048600846406840F4E81048600846006814
:1004C00040F08070086000BF0C48006800F00070C9
:1004D0000028F9D00948406820F003000749486027
:1004E0000846406840F00200486000BF034840688A
:1004F00000F00C000828F9D10CBD000000100240EB
:1005000000200240042808D14FF0E021096941F0A1
:1005100004014FF0E022116107E04FF0E02109698A
:1005200021F004014FF0E022116170477047000094
:1005300010B51348006840F00100114908600846F2
:100540004068104908400E494860084600680E4956
:1005500008400B4908600846006820F480200860C5
:100560000846406820F4FE0048604FF41F00886091
:10057000FFF753FF4FF000600449086010BD000012
:10058000001002400000FFF8FFFFF6FE08ED00E05B
:1005900010B540F225511D4800F03EF810B31B483D
:1005A00000F064F8C4B21A48008800F40040C8B9EA
:1005B0001748008800F4804060B10A2C03D0002066
:1005C0001349088020E01248008840F40040104998
:1005D000088019E00D2C06D10D48008840F48040B9
:1005E0000B49088010E00A480088C0F30D00094953
:1005F0000C5407480088401C0549088008460088BC
:10060000C72801DD0020088010BD0000003801402F
:10061000480000204C00002070B502460024002352
:100620000025002040F66A16B14200D100BFC1F398
:10063000421501F01F03012606FA03F3012D02D132
:100640009689334006E0022D02D1168A334001E03C
:10065000968A33400C12012606FA04F416883440B8
:1006600013B10CB1012000E0002070BD0146888864
:10067000C0F30800704700BFFEE700BF70470000EE
:1006800010B56FF00400FFF73DFF0A4800680A4903
:10069000B0FBF1F0094908700846007800EB400112
:1006A000C1EBC0104FF6FF7101EAC0000449088099
:1006B00010BD00002C00002000127A004000002035
:1006C0004200002010B501200D4948610220086158
:1006D000FF200C49086000BF04200949086105207B
:1006E00000F04AF802210648FFF776FE044604208F
:1006F0000349486104F080000028EDD110BD0000DE
:10070000001001400C14014070B504460D46164619
:1007100004F00F0405F0010505B140348034E0B267
:1007200000F014F8FFF7CEFF01200649086102200F
:10073000486104204861044806600420086148615B
:1007400070BD0000001001400C14014010B50446BB
:10075000FFF7B8FF012006494861022048610420E4
:1007600048610448046004200861486110BD00002D
:10077000001001400C140140014605E0002001E09A
:10078000421CD0B2FA28FBDB0A00A1F10103D9B266
:10079000F4D1704710B51420FFF7EEFF3820FFF7B3
:1007A000D5FF6420FFF7E8FF3820FFF7CFFF3220A6
:1007B000FFF7E2FF3820FFF7C9FF0A20FFF7DCFF51
:1007C0000C20FFF7C3FF0620FFF7C0FF0120FFF753
:1007D000BDFF8020FFF7BAFF6420FFF7CDFF10BDFB
:1007E000FFF74EFFFFF7D4FDFFF7D4FF00201649B7
:1007F00008600DE0154814490968425C0021124860
:100800000068FFF781FF10480068401C0E4908602F
:100810000D4800681028EDD300200D4908600DE058
:100820000C480B490968425C012109480068FFF740
:100830006BFF07480068401C0549086004480068D1
:100840001028EDD300BFFEE70000002008000020C4
:100850000400002019000020780800080000002093
:100860004C0000006C010008C40800084C00002087
:100870002C070000880100080000000000000000B4
:1008800054656D704E6F773A202020202E20204333
:10089000004D41583A37304320494E3A202020201D
:1008A0002000000000A24A04000000000000000038
:1008B0000102030406070809000000000000000010
:0408C0000000000034
:04000005080001CD21
:00000001FF
