:020000040800F2
:1000000068060020CD010008F5030008A3030008DE
:10001000F10300087F020008070600080000000046
:1000200000000000000000000000000019040008AB
:100030008302000800000000F703000859050008CB
:10004000E7010008E7010008E7010008E7010008F0
:10005000E7010008E7010008E7010008E7010008E0
:10006000E7010008E7010008E7010008E7010008D0
:10007000E7010008E7010008E7010008E7010008C0
:10008000E7010008E7010008E7010008E7010008B0
:10009000E7010008E7010008E7010008E7010008A0
:1000A000E7010008E7010008E7010008E701000890
:1000B000E7010008E7010008E7010008E701000880
:1000C000E7010008E7010008E7010008E701000870
:1000D000E7010008E7010008E7010008E701000860
:1000E000E7010008E7010008E7010008E701000850
:1000F000E7010008E7010008E7010008E701000840
:10010000E7010008E7010008E7010008E70100082F
:10011000E7010008E7010008E7010008E70100081F
:10012000E7010008E7010008E7010008E70100080F
:1001300000F002F800F03AF80AA090E8000C8244BF
:100140008344AAF10107DA4501D100F02FF8AFF29C
:10015000090EBAE80F0013F0010F18BFFB1A43F0A5
:10016000010318470C0500002C050000103A24BFBD
:1001700078C878C1FAD8520724BF30C830C144BF0C
:1001800004680C607047000000230024002500264E
:10019000103A28BF78C1FBD8520728BF30C148BFEA
:1001A0000B6070471FB51FBD10B510BD00F031F8D2
:1001B0001146FFF7F7FF00F029FA00F04FF803B4FB
:1001C000FFF7F2FF03BC00F053F800000948804736
:1001D00009480047FEE7FEE7FEE7FEE7FEE7FEE729
:1001E000FEE7FEE7FEE7FEE704480549054A064B41
:1001F0007047000071050008310100086800002008
:1002000068060020680200206802002070477047DE
:100210007047754600F028F8AE460500694653461B
:1002200020F00700854618B020B5FFF7DDFFBDE8D8
:1002300020404FF000064FF000074FF000084FF04D
:10024000000B21F00701AC46ACE8C009ACE8C009DE
:10025000ACE8C009ACE8C0098D4670470446AFF36E
:1002600000802046FFF7ABFF0048704704000020E5
:1002700001491820ABBEFEE726000200704700BF10
:10028000FEE770472DE9F0410246002500260020D8
:1002900000230024002791F803C00CF00F0591F80B
:1002A00003C00CF0100CBCF1000F03D091F802C099
:1002B0004CEA050591F800C0BCF1000F31D014687C
:1002C00000202BE04FF0010C0CFA00F3B1F800C055
:1002D0000CEA03069E4220D183004FF00F0C0CFA6B
:1002E00003F7BC4305FA03FC4CEA040491F803C08D
:1002F000BCF1280F06D14FF0010C0CFA00FCC2F83B
:1003000014C00AE091F803C0BCF1480F05D14FF0CA
:10031000010C0CFA00FCC2F810C0401C0828D1D314
:100320001460B1F800C0BCF1FF0F34DD5468002048
:100330002EE000F1080C4FF0010808FA0CF3B1F8B8
:1003400000C00CEA03069E4221D183004FF00F0C3F
:100350000CFA03F7BC4305FA03FC4CEA040491F8D9
:1003600003C0BCF1280F05D100F1080C08FA0CF805
:10037000C2F8148091F803C0BCF1480F07D100F116
:10038000080C4FF0010808FA0CF8C2F81080401C65
:100390000828CED35460BDE8F08141617047016107
:1003A000704700BFFEE7000008B50121482000F0BB
:1003B00023F82020ADF8000003208DF80200102063
:1003C0008DF8030069460848FFF75CFF6946074857
:1003D000FFF758FF20210448FFF7E1FF20210348E1
:1003E000FFF7DDFF08BD0000000C014000180140D0
:1003F00000BFFEE77047704729B1064A9269024381
:10040000044B9A6104E0034A92698243014B9A616A
:100410007047000000100240704710B500F002F86D
:1004200010BD00000CB5002001900090334800681A
:1004300040F480303149086000BF3048006800F463
:10044000003000900198401C0190009818B9019864
:10045000B0F5A06FF1D12948006800F4003010B168
:100460000120009001E0002000900098012843D175
:100470002348006840F010002149086008460068E1
:1004800020F0030008600846006840F002000860A1
:100490001A4840681949486008464068486008465C
:1004A000406840F4806048600846406820F47C1052
:1004B00048600846406840F4E81048600846006814
:1004C00040F08070086000BF0C48006800F00070C9
:1004D0000028F9D00948406820F003000749486027
:1004E0000846406840F00200486000BF034840688A
:1004F00000F00C000828F9D10CBD000000100240EB
:100500000020024030B50146B1F1807F01D30120C7
:1005100030BD21F07F40401E4FF0E0225061501767
:100520000F22002807DA13071D0E094B00F00F04F5
:10053000241F1D5503E013071C0E064B1C5400BF5F
:1005400000204FF0E0229061072010610020DFE7DB
:1005500018ED00E000E400E00448006820B1034822
:100560000068401E0149086070470000000000203C
:1005700010B51348006840F00100114908600846B2
:100580004068104908400E494860084600680E4916
:1005900008400B4908600846006820F48020086085
:1005A0000846406820F4FE0048604FF41F00886051
:1005B000FFF733FF4FF000600449086010BD0000F2
:1005C000001002400000FFF8FFFFF6FE08ED00E01B
:1005D00070B504464820FFF795FF002508E000BFEE
:1005E0004FF0E020006900F480300028F8D06D1C46
:1005F000A542F4D34FF0E020006920F001004FF055
:10060000E021086170BD00BFFEE70000002440F259
:10061000DC55FFF7C9FE27E000240FE02021134836
:10062000FFF7BBFE2046FFF7D3FF20210F48FFF75F
:10063000B6FE281BFFF7CCFF601C84B2AC42EDDB9A
:100640002C460FE020210948FFF7A7FE2046FFF7C0
:10065000BFFF20210548FFF7A2FE281BFFF7B8FFC8
:10066000601E84B2002CEDDCD6E70000000C0140D7
:100670009006000800000020040000006C01000843
:1006800094060008040000206406000088010008A9
:040690000000000066
:04000005080001CD21
:00000001FF
