:020000040800F2
:1000000048070020CD0100085D050008F90300083D
:100010005905000875020008530800080000000098
:100020000000000000000000000000008105000842
:1000300079020008000000005F05000809070008B9
:10004000E7010008E7010008E7010008E7010008F0
:10005000E7010008E7010008E7010008E7010008E0
:10006000E7010008E7010008E7010008E7010008D0
:10007000E7010008E7010008E7010008E7010008C0
:10008000E7010008E7010008E7010008E7010008B0
:10009000E7010008E7010008E7010008E7010008A0
:1000A000E7010008E7010008E7010008E701000890
:1000B000E7010008E7010008E7010008E701000880
:1000C000E7010008E7010008E7010008E701000870
:1000D000E70100086D070008E7010008E7010008D4
:1000E000E7010008E7010008E7010008E701000850
:1000F000E7010008E7010008E7010008E701000840
:10010000E7010008E7010008E7010008E70100082F
:10011000E7010008E7010008E7010008E70100081F
:10012000E7010008E7010008E7010008E70100080F
:1001300000F002F800F03AF80AA090E8000C8244BF
:100140008344AAF10107DA4501D100F02FF8AFF29C
:10015000090EBAE80F0013F0010F18BFFB1A43F0A5
:10016000010318473007000050070000103A24BF71
:1001700078C878C1FAD8520724BF30C830C144BF0C
:1001800004680C607047000000230024002500264E
:10019000103A28BF78C1FBD8520728BF30C148BFEA
:1001A0000B6070471FB51FBD10B510BD00F033F8D0
:1001B0001146FFF7F7FF00F051FB00F051F803B4D0
:1001C000FFF7F2FF03BC00F046FB00000948804740
:1001D00009480047FEE7FEE7FEE7FEE7FEE7FEE729
:1001E000FEE7FEE7FEE7FEE704480549054A064B41
:1001F000704700000D070008310100084801002089
:10020000480700204803002048030020704770473B
:10021000704770477047754600F028F8AE460500F5
:100220006946534620F00700854618B020B5FFF711
:10023000DBFFBDE820404FF000064FF000074FF015
:1002400000084FF0000B21F00701AC46ACE8C009F4
:10025000ACE8C009ACE8C009ACE8C0098D467047FD
:100260000446AFF300802046FFF7A9FF004870471F
:10027000E400002000BFFEE77047000008B5012140
:10028000302000F06DF9F020ADF8000010208DF85E
:10029000030003208DF802006946084800F012F8B8
:1002A0000720ADF8000010208DF8030003208DF822
:1002B00002006946024800F005F808BD001401403C
:1002C000001001402DE9F0410246002500260020E3
:1002D00000230024002791F803C00CF00F0591F8CB
:1002E00003C00CF0100CBCF1000F03D091F802C059
:1002F0004CEA050591F800C0BCF1000F31D014683C
:1003000000202BE04FF0010C0CFA00F3B1F800C014
:100310000CEA03069E4220D183004FF00F0C0CFA2A
:1003200003F7BC4305FA03FC4CEA040491F803C04C
:10033000BCF1280F06D14FF0010C0CFA00FCC2F8FA
:1003400014C00AE091F803C0BCF1480F05D14FF08A
:10035000010C0CFA00FCC2F810C0401C0828D1D3D4
:100360001460B1F800C0BCF1FF0F34DD5468002008
:100370002EE000F1080C4FF0010808FA0CF3B1F878
:1003800000C00CEA03069E4221D183004FF00F0CFF
:100390000CFA03F7BC4305FA03FC4CEA040491F899
:1003A00003C0BCF1280F05D100F1080C08FA0CF8C5
:1003B000C2F8148091F803C0BCF1480F07D100F1D6
:1003C000080C4FF0010808FA0CF8C2F81080401C25
:1003D0000828CED35460BDE8F0810246002093681F
:1003E0000B400BB1012000E00020704741617047D5
:1003F00001617047C160704700BFFEE710B5012082
:1004000000F056F810BD10B5282000F051F80C206F
:1004100000F04EF8062000F04BF8012000F048F8FC
:1004200010BD70B504460E460EB9E5B202E004F107
:100430004000C5B245F0800000F03AF870BD70B5DC
:1004400005460E46144631462846FFF7EAFF03E00C
:1004500014F8010B00F056F820780028F8D170BD90
:1004600010B5FF211048FFF7C5FF01210F48FFF726
:10047000BDFF02210D48FFF7BBFF00BF04210B4861
:10048000FFF7B6FF052000F01BF980210648FFF7B3
:10049000A4FF44B204210548FFF7A8FF04F0800040
:1004A0000028EBD110BD00000014014000100140F5
:1004B00010B50446FFF7D4FF01211048FFF796FF5F
:1004C00002210E48FFF792FF21460D48FFF792FFE9
:1004D00004210A48FFF78CFF04210848FFF786FF34
:1004E00021010748FFF786FF04210448FFF780FF3A
:1004F00004210248FFF77AFF10BD00000010014000
:100500000014014010B50446FFF7AAFF012110486E
:10051000FFF76EFF02210E48FFF768FF21460D48E6
:10052000FFF768FF04210A48FFF762FF042108482B
:10053000FFF75CFF21010748FFF75CFF0421044837
:10054000FFF756FF04210248FFF750FF10BD0000DF
:10055000001001400014014000BFFEE770477047E3
:1005600029B1064A92690243044B9A6104E0034AA6
:1005700092698243014B9A6170470000001002406B
:10058000704710B500F002F810BD00000CB5002057
:10059000019000903348006840F480303149086091
:1005A00000BF3048006800F4003000900198401C03
:1005B0000190009818B90198B0F5A06FF1D12948C1
:1005C000006800F4003010B10120009001E000202C
:1005D00000900098012843D12348006840F01000A3
:1005E000214908600846006820F0030008600846BA
:1005F000006840F0020008601A48406819494860E5
:100600000846406848600846406840F4806048609A
:100610000846406820F47C1048600846406840F472
:10062000E81048600846006840F08070086000BF2D
:100630000C48006800F000700028F9D009484068B4
:1006400020F00300074948600846406840F0020077
:10065000486000BF0348406800F00C000828F9D14A
:100660000CBD0000001002400020024030B50146E1
:10067000B1F1807F01D3012030BD21F07F40401EC9
:100680004FF0E022506150170F22002807DA1307BD
:100690001D0E094B00F00F04241F1D5503E0130726
:1006A0001C0E064B1C5400BF00204FF0E02290614E
:1006B000072010610020DFE718ED00E000E400E013
:1006C00070B504460F4800684FF47A71B0FBF1F63C
:1006D0003046FFF7CBFF002508E000BF4FF0E020D9
:1006E000006900F480300028F8D06D1CA542F4D3D6
:1006F0004FF0E020006920F001004FF0E021086198
:1007000070BD0000000000207047000010B51348C5
:10071000006840F00100114908600846406810492F
:1007200008400E494860084600680E4908400B49D9
:1007300008600846006820F4802008600846406889
:1007400020F4FE0048604FF41F008860FFF719FF97
:100750004FF000600449086010BD00000010024026
:100760000000FFF8FFFFF6FE08ED00E010B540F2D4
:1007700025511D4800F03EF810B31B4800F064F806
:10078000C4B21A48008800F40040C8B9174800886D
:1007900000F4804060B10A2C03D000201349088087
:1007A00020E01248008840F400401049088019E019
:1007B0000D2C06D10D48008840F480400B4908807C
:1007C00010E00A480088C0F30D0009490C5407489E
:1007D0000088401C0549088008460088C72801DDBC
:1007E0000020088010BD00000038014018000020E3
:1007F0001C00002070B502460024002300250020C4
:1008000040F66A16B14200D100BFC1F3421501F0B3
:100810001F03012606FA03F3012D02D19689334006
:1008200006E0022D02D1168A334001E0968A334059
:100830000C12012606FA04F41688344013B10CB1E8
:10084000012000E0002070BD01468888C0F3080048
:10085000704700BFFEE700BF704700001FB509A347
:100860000FCB8DE80F00FFF709FDFFF7CCFDFFF779
:10087000C5FD6A4600210220FFF7E1FD002004B01B
:1008800010BD000041544F4D40414C49454E544528
:100890004B000000B4080008000000201C0000000D
:1008A0006C010008D00800081C0000202C07000084
:1008B0008801000800A24A040000000000000000B7
:1008C0000102030406070809000000000000000000
:04000005080001CD21
:00000001FF
