:020000040800F2
:1000000038070020CD010008410400089D030008C6
:100010003D04000875020008DF060008000000002B
:10002000000000000000000000000000650400085F
:10003000790200080000000043040008970500084A
:10004000E7010008E7010008E7010008E7010008F0
:10005000E7010008E7010008E7010008E7010008E0
:10006000E7010008E7010008E7010008E7010008D0
:10007000E7010008E7010008E7010008E7010008C0
:10008000E7010008E7010008E7010008E7010008B0
:10009000E7010008E7010008E7010008E7010008A0
:1000A000E7010008E7010008E7010008E701000890
:1000B000E7010008E7010008E7010008E701000880
:1000C000E7010008E7010008E7010008E701000870
:1000D000E7010008F9050008E7010008E70100084A
:1000E000E7010008E7010008E7010008E701000850
:1000F000E7010008E7010008E7010008E701000840
:10010000E7010008E7010008E7010008E70100082F
:10011000E7010008E7010008E7010008E70100081F
:10012000E7010008E7010008E7010008E70100080F
:1001300000F002F800F03AF80AA090E8000C8244BF
:100140008344AAF10107DA4501D100F02FF8AFF29C
:10015000090EBAE80F0013F0010F18BFFB1A43F0A5
:10016000010318478C060000AC060000103A24BFBB
:1001700078C878C1FAD8520724BF30C830C144BF0C
:1001800004680C607047000000230024002500264E
:10019000103A28BF78C1FBD8520728BF30C148BFEA
:1001A0000B6070471FB51FBD10B510BD00F033F8D0
:1001B0001146FFF7F7FF00F009FB00F051F803B418
:1001C000FFF7F2FF03BC00F0D9FA000009488047AE
:1001D00009480047FEE7FEE7FEE7FEE7FEE7FEE729
:1001E000FEE7FEE7FEE7FEE704480549054A064B41
:1001F000704700009905000831010008380100200F
:10020000380700203803002038030020704770476B
:10021000704770477047754600F028F8AE460500F5
:100220006946534620F00700854618B020B5FFF711
:10023000DBFFBDE820404FF000064FF000074FF015
:1002400000084FF0000B21F00701AC46ACE8C009F4
:10025000ACE8C009ACE8C009ACE8C0098D467047FD
:100260000446AFF300802046FFF7A9FF004870471F
:10027000D400002000BFFEE770472DE9F0410246A0
:1002800000250026002000230024002791F803C049
:100290000CF00F0591F803C00CF0100CBCF1000F2E
:1002A00003D091F802C04CEA050591F800C0BCF1FA
:1002B000000F31D0146800202BE04FF0010C0CFA35
:1002C00000F3B1F800C00CEA03069E4220D183007F
:1002D0004FF00F0C0CFA03F7BC4305FA03FC4CEA91
:1002E000040491F803C0BCF1280F06D14FF0010CB3
:1002F0000CFA00FCC2F814C00AE091F803C0BCF18B
:10030000480F05D14FF0010C0CFA00FCC2F810C0E8
:10031000401C0828D1D31460B1F800C0BCF1FF0F15
:1003200034DD546800202EE000F1080C4FF0010885
:1003300008FA0CF3B1F800C00CEA03069E4221D182
:1003400083004FF00F0C0CFA03F7BC4305FA03FCD3
:100350004CEA040491F803C0BCF1280F05D100F168
:10036000080C08FA0CF8C2F8148091F803C0BCF12C
:10037000480F07D100F1080C4FF0010808FA0CF8FB
:10038000C2F81080401C0828CED35460BDE8F0812C
:100390000146C86880B27047C160704700BFFEE781
:1003A00008B50121202000F04DF80121082000F0BF
:1003B00049F80121402000F045F810208DF8030095
:1003C000FF20ADF8000003208DF8020069461948AF
:1003D000FFF753FF10208DF803000720ADF8000051
:1003E00003208DF8020069461348FFF746FF3820C6
:1003F00000F078F9052000F0C3F9382000F072F918
:10040000052000F0BDF9382000F06CF9052000F05F
:10041000B7F9082000F066F9012000F063F9062022
:1004200000F060F90C2000F05DF9022000F05AF9AC
:1004300008BD0000001401400010014000BFFEE7AD
:100440007047704729B1064A92690243044B9A618A
:1004500004E0034A92698243014B9A6170470000AD
:1004600000100240704710B500F002F810BD000007
:100470000CB50020019000903348006840F48030B3
:100480003149086000BF3048006800F40030009037
:100490000198401C0190009818B90198B0F5A06F20
:1004A000F1D12948006800F4003010B1012000901B
:1004B00001E0002000900098012843D12348006803
:1004C00040F01000214908600846006820F0030051
:1004D00008600846006840F0020008601A4840685A
:1004E000194948600846406848600846406840F43A
:1004F000806048600846406820F47C1048600846E8
:10050000406840F4E81048600846006840F0807099
:10051000086000BF0C48006800F000700028F9D0A7
:100520000948406820F003000749486008464068D1
:1005300040F00200486000BF0348406800F00C0033
:100540000828F9D10CBD0000001002400020024034
:1005500070B504460E4626B9002000EB042085B293
:1005600004E04FF4804000EB042085B2E8B200F0D4
:10057000B9F870BD70B505460E461446314628469A
:10058000FFF7E6FF03E014F8010B00F0D1F8207844
:100590000028F8D170BD704710B51348006840F0CE
:1005A00001001149086008464068104908400E499A
:1005B0004860084600680E4908400B490860084634
:1005C000006820F4802008600846406820F4FE009F
:1005D00048604FF41F008860FFF745FF4FF0006050
:1005E0000449086010BD0000001002400000FFF840
:1005F000FFFFF6FE08ED00E010B540F225511D4862
:1006000000F03EF810B31B4800F064F8C4B21A487A
:10061000008800F40040C8B91748008800F4804002
:1006200060B10A2C03D000201349088020E0124852
:10063000008840F400401049088019E00D2C06D1D4
:100640000D48008840F480400B49088010E00A48BB
:100650000088C0F30D0009490C5407480088401C6D
:100660000549088008460088C72801DD0020088069
:1006700010BD000000380140080000200C000020E0
:1006800070B50246002400230025002040F66A16BB
:10069000B14200D100BFC1F3421501F01F03012692
:1006A00006FA03F3012D02D19689334006E0022DAC
:1006B00002D1168A334001E0968A33400C1201269B
:1006C00006FA04F41688344013B10CB1012000E09E
:1006D000002070BD01468888C0F30800704700BF45
:1006E000FEE7000070B5044600200E4908600E4980
:1006F000C1F8840101200B49083108600B48FFF75D
:1007000047FE00F47F4040EA040529460748FFF70A
:1007100043FE0A2000F034F800200349C1F88801A4
:1007200070BD0000800122420000224200140140FE
:1007300070B5044601200E49086000200D49C1F83B
:10074000840101200A49083108600B48FFF720FEA8
:1007500000F47F4040EA040529460748FFF71CFEE5
:100760000A2000F00DF800200249C1F8880170BD90
:1007700080012242000022420014014000BF704765
:100780000146114A12884A434FF0E0235A61002281
:100790009A611A46126942F001021A6100BF4FF0D5
:1007A000E022106900F001021AB100F48032002A40
:1007B000F5D04FF0E022126922F001024FF0E02361
:1007C0001A6100229A617047020000201CB506A140
:1007D00003C9CDE90001FFF7E3FD6A4602210120CC
:1007E000FFF7C8FE00BFFEE7616263646566000054
:1007F00010080008000000200C0000006C01000838
:100800001C0800080C0000202C07000088010008CC
:0C081000000000000000000000000000DC
:04000005080001CD21
:00000001FF
