:020000040800F2
:10000000F0080020CD01000819050008650400086B
:1000100015050008A3020008D5060008000000002E
:100020000000000000000000000000005D05000866
:1000300045030008000000001B05000871060008C9
:10004000E7010008E7010008E7010008E7010008F0
:10005000E7010008E7010008E7010008E7010008E0
:10006000E7010008E7010008E7010008E7010008D0
:10007000E7010008E7010008E7010008E7010008C0
:10008000E7010008E7010008E7010008E7010008B0
:10009000E7010008E7010008E7010008E7010008A0
:1000A000E7010008E7010008E7010008E701000890
:1000B000E7010008E7010008E7010008E701000880
:1000C000E7010008E7010008E7010008E701000870
:1000D000E7010008E7010008E7010008E701000860
:1000E000E7010008E7010008E7010008E701000850
:1000F000E7010008E7010008E7010008E701000840
:10010000E7010008E7010008E7010008E70100082F
:10011000E7010008E7010008E7010008E70100081F
:10012000E7010008E7010008E7010008E70100080F
:1001300000F002F800F03AF80AA090E8000C8244BF
:100140008344AAF10107DA4501D100F02FF8AFF29C
:10015000090EBAE80F0013F0010F18BFFB1A43F0A5
:10016000010318470007000020070000103A24BFD1
:1001700078C878C1FAD8520724BF30C830C144BF0C
:1001800004680C607047000000230024002500264E
:10019000103A28BF78C1FBD8520728BF30C148BFEA
:1001A0000B6070471FB51FBD10B510BD00F031F8D2
:1001B0001146FFF7F7FF00F0D7FA00F04FF803B44D
:1001C000FFF7F2FF03BC00F053F800000948804736
:1001D00009480047FEE7FEE7FEE7FEE7FEE7FEE729
:1001E000FEE7FEE7FEE7FEE704480549054A064B41
:1001F000704700007506000831010008F002002079
:10020000F0080020F0040020F00400207047704740
:100210007047754600F028F8AE460500694653461B
:1002200020F00700854618B020B5FFF7DDFFBDE8D8
:1002300020404FF000064FF000074FF000084FF04D
:10024000000B21F00701AC46ACE8C009ACE8C009DE
:10025000ACE8C009ACE8C0098D4670470446AFF36E
:1002600000802046FFF7ABFF004870478C0200205B
:1002700001491820ABBEFEE726000200704710B50A
:10028000034607E018680C68A04201D0002010BDAA
:100290001B1D091D1000A2F10104A2B2F2D1012020
:1002A000F5E700BFFEE7000000F0805111B10349FF
:1002B000086001E002494860704700000404024001
:1002C0000000024021B1026842F00102026004E035
:1002D00002684FF6FE731A40026070470146002024
:1002E000002201F0805313B1054B1A6801E0054B61
:1002F0001A6802EA01030BB1012000E000207047F8
:10030000000402400000024010B50022026847F6D7
:10031000F0739A430C6A8B6823430C6923434C693E
:1003200023438C692343CC6923434C6A23438C6A5F
:1003300023431A430260CB6843600B6883604B68B9
:10034000C36010BD70472DE9F0410246002500262C
:10035000002000230024002791F803C00CF00F05B3
:1003600091F803C00CF0100CBCF1000F03D091F811
:1003700002C04CEA050591F800C0BCF1000F31D075
:10038000146800202BE04FF0010C0CFA00F3B1F8D8
:1003900000C00CEA03069E4220D183004FF00F0CF0
:1003A0000CFA03F7BC4305FA03FC4CEA040491F889
:1003B00003C0BCF1280F06D14FF0010C0CFA00FC71
:1003C000C2F814C00AE091F803C0BCF1480F05D18F
:1003D0004FF0010C0CFA00FCC2F810C0401C0828B9
:1003E000D1D31460B1F800C0BCF1FF0F34DD546804
:1003F00000202EE000F1080C4FF0010808FA0CF381
:10040000B1F800C00CEA03069E4221D183004FF0F0
:100410000F0C0CFA03F7BC4305FA03FC4CEA040486
:1004200091F803C0BCF1280F05D100F1080C08FABF
:100430000CF8C2F8148091F803C0BCF1480F07D142
:1004400000F1080C4FF0010808FA0CF8C2F810800F
:10045000401C0828CED35460BDE8F081416170474C
:100460000161704700BFFEE708B50121482000F098
:1004700065F82020ADF8000003208DF80200102060
:100480008DF8030069460848FFF75DFF6946074895
:10049000FFF759FF20210448FFF7E2FF202103481E
:1004A000FFF7DEFF08BD0000000C0140001801400E
:1004B00000B58BB00121084600F030F812480090DA
:1004C00012480190002002902020039040200490C8
:1004D0008020059080000690800007900020089002
:1004E0004FF40050099040000A9069460848FFF711
:1004F0000BFF4FF40010FFF7D7FE01210448FFF770
:10050000E1FE0BB000BD0000E40700081800002069
:100510006C00024000BFFEE77047704729B1064AF1
:1005200052690243044B5A6104E0034A5269824310
:10053000014B5A61704700000010024029B1064A81
:1005400092690243044B9A6104E0034A9269824330
:10055000014B9A617047000000100240704710B5CF
:1005600000F002F810BD00000CB5002001900090D2
:100570003348006840F480303149086000BF30489B
:10058000006800F4003000900198401C0190009831
:1005900018B90198B0F5A06FF1D12948006800F4AE
:1005A000003010B10120009001E000200090009880
:1005B000012843D12348006840F010002149086019
:1005C0000846006820F0030008600846006840F014
:1005D000020008601A4840681949486008464068A7
:1005E00048600846406840F48060486008464068BB
:1005F00020F47C1048600846406840F4E8104860E9
:100600000846006840F08070086000BF0C48006831
:1006100000F000700028F9D00948406820F003007D
:10062000074948600846406840F00200486000BF43
:100630000348406800F00C000828F9D10CBD000008
:100640000010024000200240042808D14FF0E021B1
:10065000096941F004014FF0E022116107E04FF019
:10066000E021096921F004014FF0E0221161704797
:100670007047000010B51348006840F001001149B0
:10068000086008464068104908400E49486008461E
:1006900000680E4908400B4908600846006820F4CD
:1006A000802008600846406820F4FE0048604FF44F
:1006B0001F008860FFF753FF4FF000600449086097
:1006C00010BD0000001002400000FFF8FFFFF6FE22
:1006D00008ED00E000BFFEE710B56FF00400FFF783
:1006E000B3FF0A4800680A49B0FBF1F009490870F5
:1006F0000846007800EB4001C1EBC0104FF6FF71D7
:1007000001EAC0000449088010BD0000000000207C
:1007100000127A0014000020160000200146114A41
:1007200012884A434FF0E0235A6100229A611A4628
:10073000126942F001021A6100BF4FF0E022106915
:1007400000F001021AB100F48032002AF5D04FF017
:10075000E022126922F001024FF0E0231A61002228
:100760009A6170471600002010B50024FFF7B4FF0F
:10077000FFF79EFEFFF778FE20211648FFF76EFE7A
:1007800020211548FFF76CFE4FF4FA70FFF7C6FF03
:1007900000BF4FF40010FFF7A1FD0028F9D0202280
:1007A0000E490F48FFF76BFD044644B92021094864
:1007B000FFF754FE20210848FFF752FE07E02021F2
:1007C0000448FFF74DFE20210348FFF747FE0020B5
:1007D00010BD0000000C014000180140180000206E
:1007E000E407000804030201080706050C0B0A09C8
:1007F000100F0E0D14131211181716151C1B1A19B1
:10080000201F1E1D24232221282726252C2B2A29A0
:10081000302F2E2D34333231383736353C3B3A3990
:10082000403F3E3D44434241484746454C4B4A4980
:10083000504F4E4D54535251585756555C5B5A5970
:10084000605F5E5D64636261686766656C6B6A6960
:10085000706F6E6D74737271787776757C7B7A7950
:10086000807F7E7D840800080000002018000000C2
:100870006C0100089C08000818000020D80800003F
:100880008801000800A24A040000000000000000E7
:0C08900001020304060708090000000034
:04000005080001CD21
:00000001FF
