:020000040800F2
:1000000030040020450100082906000821060008E8
:100010002506000895020008850A00080000000077
:1000200000000000000000000000000021070008A0
:1000300009050008000000002B060008350800082C
:100040005F0100085F0100085F0100085F01000810
:100050005F0100085F0100085F0100085F01000800
:100060005F0100085F0100085F0100085F010008F0
:100070005F0100085F0100085F0100085F010008E0
:100080005F0100085F0100085F0100085F010008D0
:100090005F0100085F0100085F0100085F010008C0
:1000A0005F0100085F0100085F0100085F010008B0
:1000B0005F0100085F0100085F0100085F010008A0
:1000C0005F0100085F0100085F0100085F01000890
:1000D0005F0100085F0100085F0100085F01000880
:1000E0005F0100085F0100085F0100085F01000870
:1000F0005F0100085F0100085F0100085F01000860
:100100005F0100085F0100085F0100085F0100084F
:100110005F0100085F0100085F0100085F0100083F
:100120005F0100085F0100085F0100085F0100082F
:10013000DFF80CD000F04AF8004800473D0E0008F8
:10014000300400200648804706480047FEE7FEE7E7
:10015000FEE7FEE7FEE7FEE7FEE7FEE7FEE7FEE777
:1001600039080008310100082DE9F05F054600203C
:1001700092469B4688460646814640241BE0284618
:1001800041464746224600F042F853465A46C01AB6
:10019000914110D311461846224600F029F82D1A35
:1001A00067EB01084F4622460120002100F020F8AD
:1001B00017EB00094E41201EA4F10104DFDC484684
:1001C00031462A464346BDE8F09F0000064C074DE5
:1001D00006E0E06840F0010394E807009847103417
:1001E000AC42F6D3FFF7A8FF540E0008740E0008C7
:1001F000202A04DB203A00FA02F1002070479140E7
:10020000C2F1200320FA03F3194390407047202ADB
:1002100004DB203A21FA02F00021704721FA02F3B0
:10022000D040C2F1200291400843194670470000B7
:1002300070B5044600251448006820F0704012494B
:1002400008600846006840F04050086000BF16E0B3
:1002500000200E490860022000F0B8FD04F0010003
:100260000B49C1F89C013C2000F0B0FD012007497A
:1002700008606410022000F0A9FD681CC5B2082DBA
:10028000E6DB002070BD0000000C01409C81214293
:100290000080214200BFFEE710B500F013F900F026
:1002A00001F810BD10B500241B48006820F0704014
:1002B000194908600846006840F00040086004E002
:1002C000012000F083FD601CC4B21448006808B12E
:1002D000F02CF5DBF02C01DD012010BD00240E48D0
:1002E000006820F070400C4908600846006840F043
:1002F0000040086004E0012000F068FD601CC4B20A
:100300000648006808B9F02CF5DBF02C01DD02206E
:10031000E3E70020E1E70000000C01401C812142DE
:100320002DE9F0410024FFF7B7FFCC20FFF780FF55
:100330004420FFF77DFF00BF00F084F8FF28FBD1C9
:10034000FFF7AAFFCC20FFF773FFBE20FFF770FF77
:1003500000F078F8804600F075F8054648EA052474
:10036000261104F00F073A46314603A000F08CFB3B
:100370002046BDE8F0810000CEC2B6C83A25642E02
:10038000256420A1E6200A0010B500F091FA174874
:10039000806940F00800154988611548006820F020
:1003A0007040134908600846006840F040500860FB
:1003B0000F480C30006840F080000D490C31086097
:1003C000FFF76AFF20B1012806D002280CD107E010
:1003D00008A000F059FB07E00BA000F055FB03E07C
:1003E00011A000F051FB00BF00BF10BD0010024083
:1003F000000C0140445331384232305F496E697419
:10040000204F4B210A00000044533138423230C99A
:10041000E8B1B8CFECD3A6B8B4CEBBD0C5BAC5CA84
:10042000A7B0DCA3A10A000044533138423230C9DE
:10043000E8B1B8CACDB7C5D7DCCFDFCAA7B0DCA357
:10044000A10A000070B50024002531E01A480068B8
:1004500020F07040184908600846006840F040509D
:100460000860002015490860022000F0AFFC012060
:100470001349C1F89C011048006820F070400E49F3
:1004800008600846006840F0004008600A2000F05C
:100490009DFC641009488038006808B144F080046D
:1004A0003C2000F093FC012004490860681CC5B2A0
:1004B000082DCBDB204670BD000C01409C81214201
:1004C0000080214210B50D48006820F070400B49B3
:1004D00008600846006840F0405008600020084965
:1004E000086040F2EE2000F071FC01200549C1F8DF
:1004F0009C010F2000F06AFC10BD0000000C0140C0
:100500009C8121420080214270472DE9F041024642
:1005100000250026002000230024002791F803C0B6
:100520000CF00F0591F803C00CF0100CBCF1000F9B
:1005300003D091F802C04CEA050591F800C0BCF167
:10054000000F31D0146800202BE04FF0010C0CFAA2
:1005500000F3B1F800C00CEA03069E4220D18300EC
:100560004FF00F0C0CFA03F7BC4305FA03FC4CEAFE
:10057000040491F803C0BCF1280F06D14FF0010C20
:100580000CFA00FCC2F814C00AE091F803C0BCF1F8
:10059000480F05D14FF0010C0CFA00FCC2F810C056
:1005A000401C0828D1D31460B1F800C0BCF1FF0F83
:1005B00034DD546800202EE000F1080C4FF00108F3
:1005C00008FA0CF3B1F800C00CEA03069E4221D1F0
:1005D00083004FF00F0C0CFA03F7BC4305FA03FC41
:1005E0004CEA040491F803C0BCF1280F05D100F1D6
:1005F000080C08FA0CF8C2F8148091F803C0BCF19A
:10060000480F07D100F1080C4FF0010808FA0CF868
:10061000C2F81080401C0828CED35460BDE8F08199
:1006200000BFFEE700BFFEE77047704729B1064AEA
:1006300092690243044B9A6104E0034A926982433F
:10064000014B9A61704700000010024030B5002154
:100650000022002400232D4D6D6805F00C0121B10E
:10066000042905D0082923D105E0294D056022E0A1
:10067000274D05601FE0254D6D6805F47012234D70
:100680006D6805F48034022505EB92421CB9214DBA
:10069000554305600BE01D4D6D6805F400351DB137
:1006A0001C4D5543056002E0194D5543056002E0BD
:1006B000174D056000BF00BF144D6D6805F0F001D7
:1006C0000909154D6B5C0568DD4045600F4D6D688F
:1006D00005F4E061090A104D6B5C4568DD408560FA
:1006E0000A4D6D6805F46051C90A0B4D6B5C456895
:1006F000DD40C560054D6D6805F44041890B074D2F
:100700006B5CC568B5FBF3F5056130BD00100240B8
:1007100000127A0000093D00180000202800002087
:10072000704710B500F002F810BD00000CB50020B5
:10073000019000903348006840F4803031490860EF
:1007400000BF3048006800F4003000900198401C61
:100750000190009818B90198B0F5A06FF1D129481F
:10076000006800F4003010B10120009001E000208A
:1007700000900098012843D12348006840F0100001
:10078000214908600846006820F003000860084618
:10079000006840F0020008601A4840681949486043
:1007A0000846406848600846406840F480604860F9
:1007B0000846406820F47C1048600846406840F4D1
:1007C000E81048600846006840F08070086000BF8C
:1007D0000C48006800F000700028F9D00948406813
:1007E00020F00300074948600846406840F00200D6
:1007F000486000BF0348406800F00C000828F9D1A9
:100800000CBD00000010024000200240042808D166
:100810004FF0E021096941F004014FF0E02211613D
:1008200007E04FF0E021096921F004014FF0E022D8
:10083000116170477047000010B51348006840F020
:1008400001001149086008464068104908400E49F7
:100850004860084600680E4908400B490860084691
:10086000006820F4802008600846406820F4FE00FC
:1008700048604FF41F008860FFF753FF4FF000609F
:100880000449086010BD0000001002400000FFF89D
:10089000FFFFF6FE08ED00E021B1828942F400522C
:1008A000828104E082894DF6FF731A40828170478D
:1008B00000B585B001210420FFF7B8FE01218803AF
:1008C000FFF7B4FE4FF40070ADF8100018208DF85B
:1008D000130003208DF8120004A91748FFF715FE36
:1008E0004FF48060ADF8100004208DF8130004A9C7
:1008F0001148FFF70AFE4FF4E13000900020ADF8F8
:100900000400ADF80600ADF808000C20ADF80A00B0
:100910000020ADF80C006946084800F043F80122B9
:1009200040F22551054800F018F801210348FFF76F
:10093000B3FF05B000BD00000008014000380140D1
:1009400002460020B1F5007F00D100BF13880B40A4
:100950000BB1012000E000207047F0B503460024F1
:1009600000260025002040F66A17B94200D100BFDA
:100970001846C1F3421401F01F06012707FA06F5D5
:10098000012C01D10C3004E0022C01D1103000E028
:1009900014301AB107682F43076002E00768AF43BD
:1009A0000760F0BD2DE9F04786B005460E460024ED
:1009B000A24600BFA1460027B08900B100BF2F4664
:1009C0002C8A4CF6FF700440F08804432C82AC89DA
:1009D0004EF6F3100440B08831890843718908430A
:1009E0000443AC81AC8A4FF6FF400440B089044315
:1009F000AC8201A8FFF72AFE1F48874202D1DDF82A
:100A000010A001E0DDF80CA0A88900F4004040B17E
:100A10000AEBCA0000EB0A1031684900B0FBF1F89C
:100A200007E00AEBCA0000EB0A1031688900B0FB4E
:100A3000F1F86420B8FBF0F004012009642101FB07
:100A40001089A88900F4004040B1322000EBC900B1
:100A5000B0FBF1F000F00700044308E0322000EBA7
:100A600009106421B0FBF1F000F00F0004432C8169
:100A700006B0BDE8F087000000380140C1F308026D
:100A80008280704700BFFEE70FB4054B10B503A985
:100A9000044A029800F018F810BC5DF814FB00003E
:100AA000190E00082C00002002E008C8121F08C11F
:100AB000002AFAD170477047002001E001C1121FDF
:100AC000002AFBD1704700002DE9FF4F8DB09B46F7
:100AD0000F460446002606E025280BD05A460F99FB
:100AE0009047641C761C20780028F5D111B0304660
:100AF000BDE8F08F0025A8460122984900E0054393
:100B000014F8013F203B02FA03F00842F7D12078A5
:100B10002E2817D114F8010F45F004052A280ED00D
:100B20006FF02F022078A0F1300109290AD808EBD4
:100B3000880102EB410100EB0108641CF2E757F861
:100B4000048B641C20786C280DD004DC4C2812D057
:100B50006A2811D104E074280DD07A280CD10AE05B
:100B600045F4001507E0617845F48015814202D113
:100B7000641C05F58015641C2278692A45D008DCC0
:100B8000002AB3D0582A69D0632A10D0642A08D129
:100B90003BE0702A67D0732A13D0752A5CD0782A7C
:100BA0005CD010465A460F999047761CD3E017F850
:100BB000040B8DF8000000208DF80100E9460120AB
:100BC00003E057F8049B4FF0FF3069074FF0000532
:100BD00001D40AE06D1C45450DDA8542FADB19F8AF
:100BE00005100029F6D106E06D1C8542FCDB19F8E2
:100BF00005100029F8D12E4404E019F8010B5A46DB
:100C00000F9990476D1EF8D2A5E00A200021CDE98A
:100C10000801C5F3025002280DD001CFC117031EF1
:100C200071F100030DDA4FF0000CD0EB0C006CEB0F
:100C300001012D2308E0FF1D27F00707F7E8020157
:100C4000EDE72B0504D52B238DF8283001233BE05D
:100C5000EB0739D02023F7E70A2000E0102000211D
:100C6000CDE9080107E01020002145F00405CDE999
:100C700008014FF00808C5F3025002280FD001CF39
:100C800000214FF0000A2B071FD5702A0DD0DDE997
:100C900008C38CF0100C5CEA030C0CD015E0FF1DAF
:100CA00027F00707F7E80201EBE740228DF828203C
:100CB0004FF0010A0BE050EA010306D030238DF813
:100CC00028308DF8292002239A46582A04D024A2DD
:100CD0000DF120090B9209E026A2F9E7DDE90823CE
:100CE000FFF742FA0B9B9B5C09F8013D50EA0102B9
:100CF000F4D1ADEB090020300890680701D44FF023
:100D000001080899884502DDA8EB010000E00020F9
:100D10008046002506E00AA85A46405D0F99904794
:100D20006D1C761C5545F6DB04E030205A460F99C1
:100D30009047761CB8F10001A8F10108F5DC05E048
:100D400019F8010B5A460F999047761C0899481ECE
:100D500008900029F4DC641CC5E6000009280100A5
:100D60003031323334353637383961626364656621
:100D700000000000303132333435363738394142E3
:100D8000434445460000000010B56FF00400FFF733
:100D90003DFD0A4800680A49B0FBF1F009490870B6
:100DA0000846007800EB4001C1EBC0104FF6FF7120
:100DB00001EAC0000449088010BD000000000020C6
:100DC00000127A0014000020160000200146114A8B
:100DD00012784A434FF0E0235A6100229A611A4682
:100DE000126942F001021A6100BF4FF0E02210695F
:100DF00000F001021AB100F48032002AF5D04FF061
:100E0000E022126922F001024FF0E0231A61002271
:100E10009A6170471400002070B504460D46E1B297
:100E20000548FFF72BFE00BF80210348FFF788FD30
:100E30000028F9D0204670BD00380140FFF7A4FF1C
:100E4000FFF7A2FA04E0FFF727FA08B9FFF768FAFC
:100E5000F9E70000740E00080000002030000000D8
:100E6000A80A0008A40E00083000002000040000BA
:100E7000B80A000800A24A040000000000000000B8
:100E8000010203040607080900000000000000003A
:100E9000010203040102030406070809020406080C
:040EA000000000004E
:0400000508000145A9
:00000001FF
